:020000040800F2
:1000000078080020150200080B090008670700089F
:10001000D1080008610500087714000800000000FE
:10002000000000000000000000000000210C00089B
:100030006B0500080000000091090008130D00087E
:100040002F0200082F0200082F0200082F020008CC
:100050002F0200082F0200082F0200082F020008BC
:100060002F0200082F0200082F0200082F020008AC
:100070002F0200082F0200082F0200082F0200089C
:100080002F0200082F0200082F0200082F0200088C
:100090002F0200082F0200082F0200082F0200087C
:1000A0002F0200082F0200082F0200082F0200086C
:1000B000750D00082F0200082F0200082F0200080B
:1000C0002F0200082F0200082F0200082F0200084C
:1000D0002F020008E91000082F0200082F02000874
:1000E0002F0200082F0200082F0200082F0200082C
:1000F0002F0200082F0200082F0200082F0200081C
:100100002F0200082F0200082F0200082F0200080B
:100110002F0200082F0200082F0200082F020008FB
:100120002F0200082F0200082F0200082F020008EB
:1001300000F002F800F05EF80AA090E8000C82449B
:100140008344AAF10107DA4501D100F053F8AFF278
:10015000090EBAE80F0013F0010F18BFFB1A43F0A5
:1001600001031847FC1900001C1A000010F8013B9D
:100170000A4413F0030408BF10F8014B1D1108BF17
:1001800010F8015B641E05D010F8016B641E01F8C5
:10019000016BF9D1002D15D010F8014B03F00C03C1
:1001A0000C2BA1EB04040ABF10F8013BA4EB831451
:1001B000A4EB032405F1010314F8016B5B1E01F8A5
:1001C000016BF9D5914238BF10F8013BD1D370478C
:1001D0000023002400250026103A28BF78C1FBD850
:1001E000520728BF30C148BF0B6070471FB51FBD05
:1001F00010B510BD00F031F81146FFF7F7FF01F020
:10020000AFF900F04FF803B4FFF7F2FF03BC00F0C2
:1002100057F800000948804709480047FEE7FEE715
:10022000FEE7FEE7FEE7FEE7FEE7FEE7FEE7FEE7A6
:1002300004480549054A064B70470000150D0008A3
:10024000310100087802002078080020780400209E
:1002500078040020704770477047754600F02CF80E
:10026000AE4605006946534620F00700854618B0A3
:1002700020B5FFF7DDFFBDE820404FF000064FF04E
:1002800000074FF000084FF0000B21F00701AC46CB
:10029000ACE8C009ACE8C009ACE8C009ACE8C009EA
:1002A0008D46704710B50446AFF300802046BDE888
:1002B0001040FFF7A8BF0000004870471802002058
:1002C00001491820ABBEFEE726000200704710B5BA
:1002D00000F052F810BD00002DE9F84F82464FF0B3
:1002E000000B002000909AF801009AF8001000EB33
:1002F00001201FFA80FB584601F021FB80460022B6
:100300001B4B01F097F9064600221A4B01F02AFB1D
:10031000044601F0E7FA80B200900020009900F056
:100320005FF89AF803009AF8021000EB01201FFA18
:1003300080FB40F68B60A0EB0B001FFA80FB584659
:1003400001F0FDFA06460022094B01F073F904465C
:100350000022084B01F006FB804601F0C3FA80B290
:1003600000900120009900F03BF8BDE8F88F0000F4
:100370000016AD40008CA64038B5002400BF21E037
:1003800003208DF8020010208DF80300134800EBC5
:10039000C4008088ADF80000104951F83400694667
:1003A00000F000F90D48183000EBC4008088ADF86B
:1003B00000000A49183151F83400694600F0F2F89B
:1003C000601CC4B2032CDBD30021084600F008F8FF
:1003D0000021012000F004F838BD00005401002085
:1003E0002DE9F04104460E4640F64630864201DDD6
:1003F000850003E04FF6FF7000EA8605C5F30D05A2
:1004000004EB44023A4B03EBC202918804EB440232
:1004100053F8320000F0A5F904EB4402344B03EB2F
:10042000C202918904EB440203EBC202906800F01F
:1004300098F904EB44022E4B03EBC202918804EBC3
:10044000440253F8320000F08AF900273FE004EB41
:100450004402274B03EBC202918904EB440203EBF5
:10046000C202906800F07DF905F40040B0F5004F3D
:100470000DD104EB44021E4B03EBC202918A04EB44
:10048000440203EBC202106900F06BF90CE004EBCC
:100490004402174B03EBC202918A04EB440203EBC4
:1004A000C202106900F05BF904EB4402104B03EB4D
:1004B000C202918904EB440203EBC202906800F08F
:1004C0004EF94FF6FF7000EA4505781CC7B2102FB1
:1004D000BDDB04EB4402064B03EBC202918804EB44
:1004E000440253F8320000F03CF9BDE8F08100000E
:1004F000540100200146088808B1012070470120FE
:10050000FCE7000070B51349B1F1807F00D31DE016
:1005100021F07F40401E4FF0E022506150170F2223
:10052000002807DA13071D0E0B4B00F00F04241FE1
:100530001D5503E013071C0E084B1C5400BF002080
:100540004FF0E02290610720106100BF00F00EF82C
:1005500070BD000080FC0A0018ED00E000E400E03F
:1005600000BFFEE7002101807047704710B50121F0
:10057000042000F02FFA0121102000F02BFA0121B5
:10058000082000F027FA0121202000F023FA0121A1
:10059000084600F01FFA0121014800F08FF810BD55
:1005A000000230002DE9F04102460025002600201F
:1005B00000230024002791F803C00CF00F0591F8E8
:1005C00003C00CF0100CBCF1000F03D091F802C076
:1005D0004CEA050591F800C0BCF1000F31D0146859
:1005E00000202BE04FF0010C0CFA00F3B1F800C032
:1005F0000CEA03069E4220D183004FF00F0C0CFA48
:1006000003F7BC4305FA03FC4CEA040491F803C069
:10061000BCF1280F06D14FF0010C0CFA00FCC2F817
:1006200014C00AE091F803C0BCF1480F05D14FF0A7
:10063000010C0CFA00FCC2F810C0401C0828D1D3F1
:100640001460B1F800C0BCF1FF0F34DD5468002025
:100650002EE000F1080C4FF0010808FA0CF3B1F895
:1006600000C00CEA03069E4221D183004FF00F0C1C
:100670000CFA03F7BC4305FA03FC4CEA040491F8B6
:1006800003C0BCF1280F05D100F1080C08FA0CF8E2
:10069000C2F8148091F803C0BCF1480F07D100F1F3
:1006A000080C4FF0010808FA0CF8C2F81080401C42
:1006B0000828CED35460BDE8F0810000F0B50A46AA
:1006C000002300240021002500F00046B6F1004F71
:1006D00002D11D4EF16901E01B4E7168C0F3034564
:1006E00083B200F44016B6F5401F08D121F07061C6
:1006F000154E766826F07066134F7E6012E000F4A7
:100700008016B6F5801F06D1032606FA05F4A1432C
:1007100041F0706106E0460D360103FA06F6B1437A
:1007200041F0706122B1460D360103FA06F63143FD
:1007300000F00046B6F1004F02D1034EF16101E036
:10074000014E7160F0BD0000000001400246002033
:1007500093680B400BB1012000E00020704741611D
:1007600070470161704700BFFEE7000070B50546A5
:100770000026002400BF0EE00B4A02EBC402918861
:10078000094A52F83400FFF7E1FF012801D1A040E7
:100790000643601CC4B20C2CEED32E70300A687075
:1007A000300CA87070BD00001400002070B5054624
:1007B00000242878697800EB0120A97800EB014635
:1007C00000BF36E00120A04030400121A140884216
:1007D00024D1032C18DC06F40050B0F5005F09D1D9
:1007E000154A02EBC4029188134A52F83400FFF70D
:1007F000B8FF1CE0104A02EBC40291880E4A52F87E
:100800003400FFF7ACFF12E00B4A02EBC402918800
:10081000094A52F83400FFF7A4FF08E0064A02EB49
:10082000C4029188044A52F83400FFF798FF601C14
:10083000C4B2182CC6D370BD7400002038B5002493
:1008400000F03EF800BF13E01B4800EBC4008088B6
:10085000ADF8000003208DF8020048208DF8030059
:10086000154951F834006946FFF79CFE601CC4B27C
:100870000C2CE9D300241CE0104800EBC400808855
:10088000ADF8000003208DF8020010208DF8030061
:100890000A4951F834006946FFF784FE074A02EB23
:1008A000C4029188054A52F83400FFF758FF601CD3
:1008B000C4B2182CE0D338BD14000020740000200E
:1008C00008B50020009001213D2000F083F808BD0C
:1008D00000BFFEE7F0B502460B464AF201064FF6AE
:1008E000FF7000210EE0575C7840002406E000F025
:1008F0000105401005B17040671CFCB2082CF6DB06
:100900004F1CF9B29942EEDBF0BD704770B5002183
:1009100000230F22C47804B3154C246804F4E06467
:10092000C4F5E064210AC1F10403CA40447804FA22
:1009300003F184781440214309010E4C0678A15537
:10094000047804F01F050124AC4005786D11AD005A
:1009500005F1E025C5F8004109E0047804F01F0521
:100960000124AC40044D0678761145F8264070BD50
:100970000CED00E000E400E080E100E0024901430A
:10098000024A1160704700000000FA050CED00E01B
:100990007047000029B1064AD2690243044BDA616C
:1009A00004E0034AD2698243014BDA6170470000D8
:1009B0000010024029B1064A12690243044B1A6131
:1009C00004E0034A12698243014B1A617047000038
:1009D0000010024029B1064A92690243044B9A6111
:1009E00004E0034A92698243014B9A617047000018
:1009F0000010024029B1064AD2680243044BDA6073
:100A000004E0034AD2688243014BDA607047000079
:100A10000010024030B500210022002400232D4D9B
:100A20006D6805F00C0121B1042905D0082923D1F6
:100A300005E0294D056022E0274D05601FE0254DAA
:100A40006D6805F47012234D6D6805F4803402253D
:100A500005EB92421CB9214D554305600BE01D4D3D
:100A60006D6805F400351DB11C4D5543056002E06D
:100A7000194D5543056002E0174D056000BF00BFEA
:100A8000144D6D6805F0F0010909154D6B5C0568A2
:100A9000DD4045600F4D6D6805F4E061090A104DB9
:100AA0006B5C4568DD4085600A4D6D6805F46051FA
:100AB000C90A0B4D6B5C4568DD40C560054D6D682E
:100AC00005F44041890B074D6B5CC568B5FBF3F538
:100AD000056130BD0010024000127A0000093D009F
:100AE0003C0100204C01002070B50024002500BF0F
:100AF00069E014B1012C12D108E008214448FFF745
:100B000025FE08B9002500E0012508E080214048C5
:100B1000FFF71CFE08B9002500E0012500BF00BF5B
:100B20003C48005D05284BD2DFE800F003121E268A
:100B30003B0065B93848007810B901203649087083
:100B40000021364820F8141001203249085537E0BA
:100B5000324830F814003149091F21F8140015B14A
:100B600002202C4908552BE003202A490855002172
:100B70002A48801D015500BF35B900212748801D36
:100B800001550120234908552448801D005D032894
:100B900006DD00212148801D015504201D4908550E
:100BA0000EE000201C49087001211C48001D015561
:100BB00001201A49091F887300201649085500BFF3
:100BC00000BF601CC4B2022C93DB00241DE013485C
:100BD00030F814004EF66021884207DA0F4830F8EA
:100BE0001400401C81B20D4820F814100B48801DE1
:100BF000005DFA2807DA0948801D005D401CC1B27B
:100C00000648801D0155601CC4B2022CDFDB70BD9C
:100C10000010014085010020840100200C0200200A
:100C2000704710B500F002F810BD00000CB50020B0
:100C3000019000903348006840F4803031490860EA
:100C400000BF3048006800F4003000900198401C5C
:100C50000190009818B90198B0F5A06FF1D129481A
:100C6000006800F4003010B10120009001E0002085
:100C700000900098012843D12348006840F01000FC
:100C8000214908600846006820F003000860084613
:100C9000006840F0020008601A484068194948603E
:100CA0000846406848600846406840F480604860F4
:100CB0000846406820F47C1048600846406840F4CC
:100CC000E81048600846006840F08070086000BF87
:100CD0000C48006800F000700028F9D0094840680E
:100CE00020F00300074948600846406840F00200D1
:100CF000486000BF0348406800F00C000828F9D1A4
:100D00000CBD000000100240002002404A1C02807E
:100D10007047704710B51348006840F00100114952
:100D2000086008464068104908400E494860084677
:100D300000680E4908400B4908600846006820F426
:100D4000802008600846406820F4FE0048604FF4A8
:100D50001F008860FFF765FF4FF0006004490860DE
:100D600010BD0000001002400000FFF8FFFFF6FE7B
:100D700008ED00E010B50121880700F049F940B105
:100D8000044800F037FCFFF7AFFE0121880700F0B0
:100D90003CF810BD000000207FB505460C464FF41E
:100DA000A060FFF7EBFD01210846FFF7F3FD4FF0D0
:100DB000804000F039F8ADF80850ADF8044000204C
:100DC000ADF80600ADF80A0001A94FF0804000F030
:100DD00039F90121880700F018F80122114690071F
:100DE00000F027F90121880700F012F81C208DF887
:100DF000000000208DF8010001208DF802008DF820
:100E000003006846FFF782FD7FBDCA430282704738
:100E100021B1028842F00102028004E002884FF60C
:100E2000FE731A400280704710B504466848844239
:100E300008D10121C014FFF7DDFD0021E014FFF708
:100E4000D9FDC4E0B4F1804F08D101210846FFF775
:100E5000B1FD00210120FFF7ADFDB8E05D488442FF
:100E600008D101210220FFF7A5FD00210220FFF794
:100E7000A1FDACE05848844208D101210420FFF7CD
:100E800099FD00210420FFF795FDA0E0534884421E
:100E900008D101210820FFF78DFD00210820FFF770
:100EA00089FD94E04E48844208D101211020FFF7CB
:100EB00081FD00211020FFF77DFD88E04948844234
:100EC00008D101212020FFF775FD00212020FFF728
:100ED00071FD7CE04448844208D101214014FFF7B1
:100EE00089FD00216014FFF785FD70E03F488442D2
:100EF00009D10121C804FFF77DFD00214FF4002036
:100F0000FFF778FD63E03A48844209D101210805E2
:100F1000FFF770FD00214FF48010FFF76BFD56E0E6
:100F20003448844209D101214805FFF763FD0021BF
:100F30004FF40010FFF75EFD49E02F48844208D1CE
:100F400001214020FFF736FD00214020FFF732FD50
:100F50003DE02A48844208D101218020FFF72AFD84
:100F600000218020FFF726FD31E02548844208D18A
:100F700001218015FFF71EFD0021A015FFF71AFDC6
:100F800025E02048844209D101210804FFF732FD01
:100F900000214FF48030FFF72DFD18E01A488442FD
:100FA00009D101214804FFF725FD00214FF400304D
:100FB000FFF720FD0BE01548844208D10121880489
:100FC000FFF718FD00214FF48020FFF713FD10BD3F
:100FD000002C01400004004000080040000C0040CC
:100FE000001000400014004000340140004C01405B
:100FF000005001400054014000180040001C004017
:1010000000200040004001400044014000480140F1
:1010100030B50246002000230024158A05EA0103AA
:10102000958905EA010413B10CB1012000E000200C
:1010300030BD1AB183890B43838102E083898B43DE
:1010400083817047002202881D4B98420ED01D4BB1
:1010500098420BD0B0F1804F08D01B4B984205D07E
:101060001A4B984202D01A4B984204D14FF68F7314
:101070001A404B881A43174B984207D0164B984298
:1010800004D04FF6FF431A40CB881A4302808B8866
:1010900083850B8803850A4B98420BD0094B9842F5
:1010A00008D00E4B984205D00D4B984202D00D4B04
:1010B000984201D10B7A0386012383827047000096
:1010C000002C0140003401400004004000080040B2
:1010D000000C00400010004000140040004001409F
:1010E000004401400048014008B50020009040F253
:1010F0002551224800F0FBF800283DD040F2255150
:101100001E4800F07EF81E484088012804D10020C7
:101110001C4908701C49087000201949488008467D
:101120000521C2689047154800F09CF91749154AF7
:101130001278885413480078401C124908701348EC
:101140000078AA2804D0002008700F49087008BD54
:101150000C4800780E280FDB002240F2255107488A
:1011600000F0EFF80120094981F87E0000200549D0
:10117000087005490870EAE700BFE8E70038014059
:1011800000000020500100205101002088010020B3
:1011900070B505460E464FF400611348FFF7E1FABB
:1011A000002240F22551114800F0CBF800240CE059
:1011B000295D0E4800F05BF900BF40210B4800F0AC
:1011C00089F80028F9D0601CC4B2B442F0DB0122D7
:1011D00040F22551054800F0B4F84FF40061024890
:1011E000FFF7BDFA70BD0000000801400038014063
:1011F00001F40072B2F5007F00D100BFCA43028043
:10120000704710B50022002340F66A14A14200D1B5
:1012100000BF0A1201249440A3B2DC43048010BD35
:1012200021B1828942F40052828104E082894DF624
:10123000FF731A408281704710B5044620488442EB
:1012400009D101218803FFF7D5FB00214FF480402D
:10125000FFF7D0FB32E01B48844209D1012148044A
:10126000FFF7A8FB00214FF40030FFF7A3FB25E0B8
:101270001548844209D101218804FFF79BFB002116
:101280004FF48020FFF796FB18E01048844209D104
:101290000121C804FFF78EFB00214FF40020FFF767
:1012A00089FB0BE00A48844208D101210805FFF7B9
:1012B00081FB00214FF48010FFF77CFB10BD000084
:1012C000003801400044004000480040004C00400D
:1012D0000050004002460020B1F5007F00D100BF61
:1012E00013880B400BB1012000E00020704770B55F
:1012F0000246002400230025002040F66A16B14271
:1013000000D100BFC1F3421501F01F03012606FA08
:1013100003F3012D02D19689334006E0022D02D15C
:10132000168A334001E0968A33400C12012606FAF1
:1013300004F41688344013B10CB1012000E0002001
:1013400070BDF0B50346002400260025002040F6BD
:101350006A17B94200D100BF1846C1F3421401F028
:101360001F06012707FA06F5012C01D10C3004E015
:10137000022C01D1103000E014301AB107682F435D
:10138000076002E00768AF430760F0BD2DE9F04752
:1013900086B005460E460024A24600BFA14600279F
:1013A000B08900B100BF2F462C8A4CF6FF70044074
:1013B000F08804432C82AC894EF6F3100440B088C8
:1013C00031890843718908430443AC81AC8A4FF6E4
:1013D000FF400440B0890443AC8201A8FFF71AFB28
:1013E0001F48874202D1DDF810A001E0DDF80CA013
:1013F000A88900F4004040B10AEBCA0000EB0A10D3
:1014000031684900B0FBF1F807E00AEBCA0000EBD5
:101410000A1031688900B0FBF1F86420B8FBF0F0E5
:1014200004012009642101FB1089A88900F400400F
:1014300040B1322000EBC900B0FBF1F000F0070032
:10144000044308E0322000EB09106421B0FBF1F006
:1014500000F00F0004432C8106B0BDE8F0870000C7
:101460000038014001468888C0F308007047C1F386
:1014700008028280704700BFFEE7000010B586B00A
:1014800004464FF4A060FFF779FA01218803FFF7C3
:10149000A1FA01210420FFF79DFA2F48FFF7CCFEA7
:1014A0004FF40070ADF8140003208DF816001820DA
:1014B0008DF8170005A92948FFF774F84FF48060EC
:1014C000ADF8140004208DF8170005A92348FFF794
:1014D00069F84FF40060ADF8140003208DF8160091
:1014E00010208DF8170005A91C48FFF75BF8019440
:1014F0000020ADF80800ADF80A00ADF80C00ADF81A
:1015000010000C20ADF80E0001A91348FFF73EFFB4
:1015100020211148FFF76CFE012240F225510E48B0
:10152000FFF70FFF25208DF8000000208DF8010047
:101530008DF8020001208DF803006846FFF7E6F9F8
:101540004FF400610548FFF70AF901210248FFF74F
:1015500067FE06B010BD00000038014000080140E1
:101560000024FEF7CFFFFFF769F947214FF47A70A7
:10157000FFF712FCFEF7ABFE4FF4E130FFF77EFF02
:1015800035E01B4890F87E00012830D10C21184826
:10159000FFF7A0F904461648007B1549497B00EB8C
:1015A0000120A0421FD11248401CFFF7FFF810484D
:1015B000001DFEF791FEAA200D4981F83F0001F1C0
:1015C0004000FFF7D3F80C2109483F30FFF782F9BC
:1015D0000446074880F84B40210A80F84C100E2141
:1015E0003F30FFF7D5FD0020014981F87E00C8E7B4
:1015F0008801002010B5014608460823002200BFDC
:1016000014E00488012C03DD0488641E048009E0D2
:101610000488012C06D100240480801C012404705D
:10162000801C01E0001D00BF141DA2B29A42E8DB3D
:1016300010BD00002DE9C04130B4DFF8A0C23CEA83
:10164000111418BF3CEA131400F0EC8081EA030582
:101650001CEA111444EAD57418BF1CEA131500F0F3
:10166000C780A4EB05044FF0004545EAC12145EAD7
:10167000C32341EA505143EA525304F17F74994223
:1016800004F500344FEAC0204FEAC22208BF90425E
:1016900000F09C804FEA13650FF24016765D4FEA2A
:1016A000134506FB05F7C7F1807706FB07F74FEAFE
:1016B000D737A7FB03687642C8F58038A7FB06CE6C
:1016C00038BFA8F1010807FB08E64FF0000EA6FBA3
:1016D000028CE6FB03CEDCF1000CCEF1004E38BFED
:1016E000AEF1010EA6FB0C584FF000074FF00005BD
:1016F000E6FB0E87A1FB08C6A0FB07CE16EB0E0685
:1017000045F10005E1FB076515F1E04E7EBFA4F54C
:1017100080345FEA46066D4116F1800745F1000509
:101720004FEA17274FEA066647EA0567A6F1DE4645
:10173000B6F1805F4FEA15251FD9384624F0010C19
:1017400005EBC471BCF1FE6F01EB0C1102D8F0BCCB
:10175000BDE8008124425CBF01F5801E9EEAC47F83
:1017600002D4F0BCBDE80081244238D4F0BCA1F121
:10177000C041BDE8004100F0EDB94FEAD22242EA93
:1017800043524FEAD323A7FB02864FEAD02040EA18
:10179000415007FB03661EEA0E0F4FEAD12105FBFD
:1017A000026658BFA6EB0056B6EB00564FEA520E43
:1017B0004EEAC37E18EB0E0E56EB530EBDD518EB5A
:1017C00002085E417F1C55F10005B6E74FF4801515
:1017D0004FF000074FF000064FF00008ADE7F0BCF7
:1017E0004FF0000001F1C04101F00041BDE800816F
:1017F00011EA0C1F0CEA131500D00CE013EA0C1FC1
:1018000000F025804FF00000F0BC81EA030101F0F8
:101810000041BDE80081F0BCBDE8004181EA030160
:1018200000F098B9F0BCBDE8004170B500F044F993
:10183000097EFC3E00F007B881EA03014FF000008A
:1018400001F00041704781EA030100F083B9F0BC68
:10185000BDE800414FF0000021497047FFFDFBF952
:10186000F7F5F4F2F0EEEDEBE9E8E6E4E3E1E0DED3
:10187000DDDBDAD8D7D5D4D3D1D0CFCDCCCBCAC845
:10188000C7C6C5C4C2C1C0BFBEBDBCBBBAB9B8B76C
:10189000B6B5B4B3B2B1B0AFAEADACABAAA9A8A85F
:1018A000A7A6A5A4A3A3A2A1A09F9F9E9D9C9C9B2D
:1018B0009A999998979796959594939392919190D8
:1018C0008F8F8E8E8D8C8C8B8B8A89898888878769
:1018D0008685858484838382828181800000FF07DE
:1018E0000000F87F4FEA1153A3F58063D3F11E0384
:1018F000A8BFD3F1200C08DB4FF0004242EAC1221E
:1019000052EA505232FA03F0704709420BD4102BBE
:10191000C4BF0020704703F5787CBCF1FF3F05D0C1
:101920004FF0FF3070474FF00000704770B500F087
:10193000C3F800BF4992248000207047F0E7B0FA56
:1019400080F310FA03F10AD0C3F11D0303F580639D
:101950004FEA41504FEA035202EBD12170474FF05A
:1019600000007047DFF848C170B51CEA111E1EBFA9
:101970001CEA13159EEA0C0F95EA0C0F00F06F801D
:1019800081EA030423EA4C134EEAD47E21EA4C1187
:1019900041F4801143F48013AE44A1FB024CA0FB40
:1019A0000365AEF17F7E361955EB0C05A1FB034CA8
:1019B0004CF10003A0FB021C16EB0C06654153F131
:1019C0000003094218BF46F0010613F4007F0BD153
:1019D0004FEA03314FEA0530340341EA155140EA3A
:1019E00016506FF003020AE04FEAC3214FEAC52008
:1019F000F40241EA555140EA56506FF0020202EB00
:101A00002E4201EB025585EACE710AD05FEA440C02
:101A100018BF24F0004450F1000041F1000120EA19
:101A2000D47040F2FE7C624500D270BDA84214BF63
:101A30004FF080444FF04044002E08BF0024BEF118
:101A4000806FA8BFA1F1C041BDE8704080F28280E4
:101A50004FF0000001F1C04101F0004170479EEAE3
:101A60000C0F0CEA131518BF95EA0C0F06D04FF0B7
:101A7000000081EA030E0EF0004170BD00F01CF87A
:101A80008900013E00F007B800F009B84FEA430CA6
:101A90005FEA5C5C08D081EA030100F05BB84FEAC2
:101AA000410C5FEA5C5CF6D14FF0000001497047E1
:101AB0000000FF070000F87F0EF1020E2EF0030E6B
:101AC0005EF8046B364205D4012A43EB030515F595
:101AD000001F12D8012841EB010C1CF5001F0CD887
:101AE0000ED14FEAD17C15F5001F0CEB4C0C0CF11C
:101AF000020C08BF4CEBD37C04E04FF0080C01E073
:101B00004FEAD37C0CEB4C0526FA05F606F00706E7
:101B1000B6F1040C06D20EEB860CBDE870404CF01A
:101B2000010C6047DFE80CF0090B02024FF00041A6
:101B30004FF00000A1F5002170BD194610460128A4
:101B400051EB010418BFD4F5001484BF002001F04C
:101B5000004170BD0808A0F500114FEA310170473F
:101B6000801B000800000020880100006C010008B4
:101B7000341C000888010020F0060000D001000895
:101B8000101A050000000A000100650500080D0D8F
:101B90000008F50400080008014001182108520857
:101BA0000852100852200852400852802811434120
:101BB0000852100821195210481108520208520404
:101BC0000852080852100852200852400852803823
:101BD00031582108520208520408520808521008CD
:101BE0005220085240082180520C80520C80520C26
:101BF00078520C78520C78520C78520C78520C783F
:101C0000520C78520C78520C789101200501020395
:101C100004044008060708090204061E820C8031ED
:101C200098520C9856140052089052081000040064
:041C300000000000B0
:0400000508000131BD
:00000001FF
