:020000040800F2
:100000008008002015020008B71000082D0E000817
:100010007D10000879060008F31D000800000000AC
:10002000000000000000000000000000851400082F
:10003000A908000800000000BD110008771500089D
:100040002F0200082F0200082F0200082F020008CC
:100050002F0200082F0200082F0200082F020008BC
:100060002F0200082F0200082F0200082F020008AC
:100070002F0200082F0200082F0200082F0200089C
:100080002F0200082F0200082F0200082F0200088C
:100090002F0200082F0200082F0200082F0200087C
:1000A0002F0200082F0200082F0200082F0200086C
:1000B000D91500082F0200082F0200082F0200089F
:1000C0002F0200082F0200082F0200082F0200084C
:1000D0002F020008B51900082F0200082F0200089F
:1000E0002F0200082F0200082F0200082F0200082C
:1000F0002F0200082F0200082F0200082F0200081C
:100100002F0200082F0200082F0200082F0200080B
:100110002F0200082F0200082F0200082F020008FB
:100120002F0200082F0200082F0200082F020008EB
:1001300000F002F800F05EF80AA090E8000C82449B
:100140008344AAF10107DA4501D100F053F8AFF278
:10015000090EBAE80F0013F0010F18BFFB1A43F0A5
:10016000010318471C1F00003C1F000010F8013B52
:100170000A4413F0030408BF10F8014B1D1108BF17
:1001800010F8015B641E05D010F8016B641E01F8C5
:10019000016BF9D1002D15D010F8014B03F00C03C1
:1001A0000C2BA1EB04040ABF10F8013BA4EB831451
:1001B000A4EB032405F1010314F8016B5B1E01F8A5
:1001C000016BF9D5914238BF10F8013BD1D370478C
:1001D0000023002400250026103A28BF78C1FBD850
:1001E000520728BF30C148BF0B6070471FB51FBD05
:1001F00010B510BD00F063F81146FFF7F7FF01F0EE
:100200006DFE00F081F803B4FFF7F2FF03BC00F0CD
:1002100089F800000948804709480047FEE7FEE7E3
:10022000FEE7FEE7FEE7FEE7FEE7FEE7FEE7FEE7A6
:1002300004480549054A064B704700007915000837
:100240003101000880020020800800208004002086
:100250008004002010B5203AC0F00B80B1E818509F
:10026000203AA0E81850B1E81850A0E81850BFF4A0
:10027000F5AF5FEA027C24BFB1E81850A0E818503F
:1002800044BF18C918C0BDE810405FEA827C24BF93
:1002900051F8043B40F8043B08BF7047D20728BF21
:1002A00031F8023B48BF11F8012B28BF20F8023B70
:1002B00048BF00F8012B704770477047704775467C
:1002C00000F02CF8AE4605006946534620F00700C2
:1002D000854618B020B5FFF7ABFFBDE820404FF0D2
:1002E00000064FF000074FF000084FF0000B21F020
:1002F0000701AC46ACE8C009ACE8C009ACE8C009ED
:10030000ACE8C0098D46704710B50446AFF30080D5
:100310002046BDE81040FFF776BF00000048704758
:100320001C02002001491820ABBEFEE72600020097
:10033000704721B1826842F00102826003E0826866
:1003400022F001028260704700B587B0002006905D
:1003500005900121480200F06FFF0020009001206D
:100360008DF804008DF805004FF460200290002005
:10037000039002208DF810006946244800F068F8C8
:10038000002000F01DFF012000F0FCF805230122F1
:1003900011461E4800F084F80523022211461B482E
:1003A00000F07EF801211948FFF7C3FF00200690F6
:1003B0000CE00020059002E00598401C059005988F
:1003C000B0F57A7FF8DB0698401C06900698B0F5E9
:1003D0007A7FEEDB01210D4800F01AF80B4800F09F
:1003E000BBF800BF094800F028F80028FAD10748F8
:1003F00000F0C2F800BF054800F015F80028FAD157
:100400000121024800F0ADF807B000BD0024014012
:1004100021B1826842F48072826003E0826822F433
:10042000807282607047014600208A6802F00402F0
:100430000AB1012000E000207047014600208A68D0
:1004400002F008020AB1012000E00020704700001D
:1004500030B502460020002350680F4C20400D7933
:100460000C6844EA05242043506090680B4C2040FF
:10047000D1E902542C434D7944EA4504204390606D
:10048000D06A20F470000C7C641EE4B2234340EA7E
:100490000350D06230BD0000FFFEF0FFFDF7F1FF1A
:1004A000F0B504460D4600200021092D11DDE0685D
:1004B000A5F10A0606EB4607072606FA07F1884368
:1004C000A5F10A0606EB460603FA06F10843E060CA
:1004D0000CE0206905EB4507072606FA07F188437B
:1004E00005EB450603FA06F108432061072A0FDAF7
:1004F000606B561E06EB86071F2606FA07F1884337
:10050000561E06EB860605FA06F10843606322E0F4
:100510000D2A0FDA206BD61F06EB86071F2606FA78
:1005200007F18843D61F06EB860605FA06F1084355
:10053000206310E0E06AA2F10D0606EB86071F2695
:1005400006FA07F18843A2F10D0606EB860605FAC6
:1005500006F10843E062F0BD816841F00801816066
:10056000704721B1826842F4A002826003E0826891
:1005700022F4A00282607047816841F0040181602A
:100580007047000030B10749096841F40001054A8D
:10059000116005E00349096821F40001014A116076
:1005A000704700000824014007490988090A0170C2
:1005B00005490978417004494988090A817002494E
:1005C0008978C170704700006601002010B500F006
:1005D00001F810BD08B50220ADF8000000208DF82C
:1005E00003006946084800F039FB0420ADF800001C
:1005F00000208DF803006946034800F02FFBFFF749
:10060000A3FE00F05DF808BD00080140014608881F
:1006100008B1012070470120FCE7000070B51349C4
:10062000B1F1807F00D31DE021F07F40401E4FF0EC
:10063000E022506150170F22002807DA13071D0E21
:100640000B4B00F00F04241F1D5503E013071C0E75
:10065000084B1C5400BF00204FF0E022906107209F
:10066000106100BF00F0DEFA70BD000080FC0A00DF
:1006700018ED00E000E400E000BFFEE7002101808B
:10068000704700000021044A22F81010002202499D
:10069000091D21F8102070470C020020002201499A
:1006A0000A5470471402002021B1026842F001028E
:1006B000026004E002684FF6FE731A400260704761
:1006C00000B58BB00121084600F086FD114800F00E
:1006D00027F8114800901148019000200290022054
:1006E0000390002004908020059040000690800038
:1006F0000790202008900002099000200A90694687
:10070000044800F0B3F801210248FFF7CDFF0BB019
:1007100000BD0000080002404C240140660100209A
:1007200001684FF6FE7211400160002101604160D6
:100730008160C1604B49884208D14A4908394968FB
:1007400041F00F01474A083A51608AE045491431A7
:10075000884208D143490839496841F0F001414ACB
:10076000083A51607DE03F492831884208D13D492F
:100770000839496841F470613A4A083A516070E0BA
:1007800038493C31884208D136490839496841F432
:100790007041344A083A516063E03249503188422E
:1007A00008D130490839496841F470212D4A083A86
:1007B000516056E02B496431884208D129490839F3
:1007C000496841F47001274A083A516049E02549D7
:1007D0007831884208D123490839496841F070616D
:1007E000204A083A51603CE01F49884206D1011F67
:1007F000096841F00F01021F116032E01A491431FB
:10080000884208D11849091F096841F0F001164AC9
:10081000121F116025E014492831884208D112497D
:10082000091F096841F470610F4A121F116018E036
:100830000D493C31884208D10B49091F096841F430
:100840007041094A121F11600BE00749503188427C
:1008500007D10549091F096841F47021024A121F96
:1008600011607047080002400804024010B50022E1
:10087000026847F6F0739A430C6A8B6823430C694D
:1008800023434C6923438C692343CC6923434C6A3B
:1008900023438C6A23431A430260CB6843600B688E
:1008A00083604B68C36010BD7047000070B57D4821
:1008B0000078002865D07CA000F078F9002409E0D9
:1008C0007C49085D00F07EF90D2C02DA7AA000F078
:1008D0006DF9641C0E2CF3DB78A000F067F978A0AA
:1008E00000F064F97349487800F06CF979A000F0E1
:1008F0005DF97049887800F065F978A000F056F944
:100900006C49C87800F05EF976A000F04FF96948AC
:10091000C07800046749897840EA01206549497830
:1009200040EA010570A000F041F9284600F04AF9BC
:1009300071A000F03BF905F0010000F043F971A04F
:1009400000F034F9C5F3400000F03CF96FA000F06E
:100950002DF9C5F3800000F035F96EA000F026F9FE
:10096000C5F3C00000F02EF96CA000F01FF9C5F32C
:10097000002000F027F95BA000F018F90020494999
:1009800008706848007800287ED067480078A8B1D1
:1009900066A000F00BF96A48008800F013F969A01E
:1009A00000F004F96949097B684A527B01EB022097
:1009B00000F008F94BA000F0F9F86CE064A000F03A
:1009C000F5F8002409E06149085D00F0FBF80D2C02
:1009D00002DA39A000F0EAF8641C0E2CF3DB37A031
:1009E00000F0E4F85DA000F0E1F85849487800F024
:1009F000E9F838A000F0DAF85449887800F0E2F815
:100A000036A000F0D3F85149C87800F0DBF835A0E3
:100A100000F0CCF84D48C07800044C49897840EA91
:100A200001204A49497840EA010551A000F0BEF88A
:100A3000284600F0C7F852A000F0B8F805F0010011
:100A400000F0C0F851A000F0B1F8C5F3400000F08C
:100A5000B9F850A000F0AAF8C5F3800000F0B2F891
:100A60004EA000F0A3F8C5F3C00000F0ABF82BA037
:100A700000F09CF8C5F3002000F0A4F849A000F0B5
:100A800095F8C5F3403000E008E000F09BF815A0B1
:100A900000F08CF800BF00202249087011A000F07F
:100AA00085F870BD1B000020545820446174613AE1
:100AB000205B00007E010020200000005D0D0A0088
:100AC000545820494F205374617475733A20423052
:100AD0003D0000002042313D000000002042323D38
:100AE000000000000D0A0000545820494F204269C0
:100AF00074733A2000000000202D3E204B455931F0
:100B00003D000000205043343D000000205043359C
:100B10003D000000205043363D0000002062697413
:100B2000383D0000160000201A00002052582043D3
:100B30005243204572726F72212043616C633D0005
:100B40001800002020526563763D000070010020EF
:100B5000525820446174613A205B00005258204989
:100B60004F205374617475733A2042303D00000089
:100B7000525820494F20426974733A200000000007
:100B8000202D3E20626974303D00000020626974AF
:100B9000313D000020626974323D000020626974BA
:100BA000333D00002062697431333D0010B50446C6
:100BB00003E0207800F0C2FF641C20780028F8D100
:100BC00010BD000030B589B0054614220FA104A85D
:100BD000FFF740FB124A07CA01AB07C307240BE02B
:100BE000A00025FA00F000F00F0004A9095CC4F190
:100BF000090001AA1154641E002CF1DA00208DF8BE
:100C00000E0001A8FFF7D2FF09B030BD30313233FA
:100C100034353637383941424344454600000000F8
:100C20007420000810B50121042000F005FB01210B
:100C3000102000F001FB0121082000F0FDFA012145
:100C4000202000F0F9FA0121084600F0F5FA012110
:100C5000014800F08FF810BD000230002DE9F0418E
:100C6000024600250026002000230024002791F8DA
:100C700003C00CF00F0591F803C00CF0100CBCF190
:100C8000000F03D091F802C04CEA050591F800C0AE
:100C9000BCF1000F31D0146800202BE04FF0010CA4
:100CA0000CFA00F3B1F800C00CEA03069E4220D112
:100CB00083004FF00F0C0CFA03F7BC4305FA03FC5A
:100CC0004CEA040491F803C0BCF1280F06D14FF0A0
:100CD000010C0CFA00FCC2F814C00AE091F803C041
:100CE000BCF1480F05D14FF0010C0CFA00FCC2F822
:100CF00010C0401C0828D1D31460B1F800C0BCF16A
:100D0000FF0F34DD546800202EE000F1080C4FF096
:100D1000010808FA0CF3B1F800C00CEA03069E4281
:100D200021D183004FF00F0C0CFA03F7BC4305FAF6
:100D300003FC4CEA040491F803C0BCF1280F05D170
:100D400000F1080C08FA0CF8C2F8148091F803C0FE
:100D5000BCF1480F07D100F1080C4FF0010808FA68
:100D60000CF8C2F81080401C0828CED35460BDE8AF
:100D7000F0810000F0B50A46002300240021002580
:100D800000F00046B6F1004F02D11D4EF16901E0BE
:100D90001B4E7168C0F3034583B200F44016B6F5EC
:100DA000401F08D121F07061154E766826F07066FC
:100DB000134F7E6012E000F48016B6F5801F06D156
:100DC000032606FA05F4A14341F0706106E0460DE2
:100DD000360103FA06F6B14341F0706122B1460DC7
:100DE000360103FA06F6314300F00046B6F1004F33
:100DF00002D1034EF16101E0014E7160F0BD0000CF
:100E0000000001400246002093680B400BB1012016
:100E100000E00020704741617047016170470000A9
:100E200001460148405C70471402002000BFFEE705
:100E300070B506460024002500BF5DE0324A02EB93
:100E4000C5029188304A52F83500FFF7DBFF20B920
:100E5000072D02DD0120A84004430020FFF7E0FF3A
:100E6000012819D10020FFF70DFC0020FFF716FC28
:100E70002648006818B90120244908600CE023487E
:100E80000068082803D100202049086004E01F48BA
:100E9000006840001D4908600120FFF7C1FF0128DC
:100EA00018D1FFF7EFFB0120FFF7F8FB1748406868
:100EB00018B91020154948600CE014484068802893
:100EC00003D100201149486004E010484068400008
:100ED0000E4948600D480068C0F1FF3004400B48DF
:100EE0000068044309484068C0F1FF3004400748E7
:100EF00040680443681CC5B2182D9FD33470200A83
:100F00007070200CB07070BD880000204801002077
:100F10002DE9F041054600240027A046287869788D
:100F200000EB0120A97800EB014600BF06E000209D
:100F30002949085529490855601CC4B2042CF6DB20
:100F400027480078AA280BD1254840782449897879
:100F500000EB01202249C97800EB0147C7F30048A4
:100F6000002412E00120A04030400121A14088422D
:100F700009D1B8F1000F03D001201749085502E04C
:100F8000012016490855601CC4B2042CEADB00F0AD
:100F9000D5F804241BE00120A04030400121A140ED
:100FA000884209D10F4A02EBC40291880D4A52F8D7
:100FB0003400FFF732FF08E00A4A02EBC4029188CE
:100FC000084A52F83400FFF726FF601CC4B20C2C0C
:100FD000E1D3BDE8F08100001F00002023000020C5
:100FE0007E0100202800002038B5002400F03EF8E3
:100FF00000BF13E01B4800EBC4008088ADF8000080
:1010000003208DF8020048208DF80300154951F89F
:1010100034006946FFF722FE601CC4B2182CE9D3E5
:1010200000241CE0104800EBC4008088ADF80000EC
:1010300003208DF8020010208DF803000A4951F8B2
:1010400034006946FFF70AFE074A02EBC4029188A2
:10105000054A52F83400FFF7DEFE601CC4B20C2CC7
:10106000E0D338BD880000202800002008B500200B
:10107000009001213D2000F0DFF808BD00BFFEE731
:10108000F0B502460B464AF201064FF6FF7000210A
:101090000EE0575C7840002406E000F001054010A7
:1010A00005B17040671CFCB2082CF6DB4F1CF9B28E
:1010B0009942EEDBF0BD704770B5002100230F228E
:1010C000C47804B3154C246804F4E064C4F5E06407
:1010D000210AC1F10403CA40447804FA03F1847878
:1010E0001440214309010E4C0678A155047804F000
:1010F0001F050124AC4005786D11AD0005F1E02518
:10110000C5F8004109E0047804F01F050124AC4053
:10111000044D0678761145F8264070BD0CED00E0D0
:1011200000E400E080E100E002490143024A11606E
:10113000704700000000FA050CED00E010B5002437
:1011400030E01A48005DB0B11948007848B1194A3A
:1011500002EBC4029188174A52F83400FFF75DFE93
:101160001FE0144A02EBC4029188124A52F834007C
:10117000FFF751FE15E01048005D48B10D4A02EB43
:10118000C40291880B4A52F83400FFF746FE08E08B
:10119000084A02EBC4029188064A52F83400FFF76D
:1011A0003AFE641C042CCCDB10BD00001F000020A4
:1011B0001E000020280000202300002070470000AF
:1011C00001460020034A506820F440400843506024
:1011D000704700000010024029B1064A52690243DC
:1011E000044B5A6104E0034A52698243014B5A613D
:1011F000704700000010024029B1064AD26902433C
:10120000044BDA6104E0034AD2698243014BDA619C
:10121000704700000010024029B1064A12690243DB
:10122000044B1A6104E0034A12698243014B1A61BC
:10123000704700000010024029B1064A926902433B
:10124000044B9A6104E0034A92698243014B9A611C
:10125000704700000010024029B1064AD2680243DC
:10126000044BDA6004E0034AD2688243014BDA603F
:10127000704700000010024030B500210022002419
:1012800000232D4D6D6805F00C0121B1042905D016
:10129000082923D105E0294D056022E0274D05608E
:1012A0001FE0254D6D6805F47012234D6D6805F43F
:1012B0008034022505EB92421CB9214D554305604F
:1012C0000BE01D4D6D6805F400351DB11C4D5543F7
:1012D000056002E0194D5543056002E0174D0560B9
:1012E00000BF00BF144D6D6805F0F0010909154DF0
:1012F0006B5C0568DD4045600F4D6D6805F4E0618D
:10130000090A104D6B5C4568DD4085600A4D6D68CB
:1013100005F46051C90A0B4D6B5C4568DD40C56042
:10132000054D6D6805F44041890B074D6B5CC56840
:10133000B5FBF3F5056130BD0010024000127A00E4
:1013400000093D00500100206001002070B500241C
:10135000002500BF69E014B1012C12D108E008217A
:101360004448FFF74FFD08B9002500E0012508E0DB
:1013700080214048FFF746FD08B9002500E001251F
:1013800000BF00BF3C48005D05284BD2DFE800F0FD
:1013900003121E263B0065B93848007810B90120B9
:1013A000364908700021364820F8141001203249CF
:1013B000085537E0324830F814003149091F21F848
:1013C000140015B102202C4908552BE003202A49AE
:1013D000085500212A48801D015500BF35B900215C
:1013E0002748801D01550120234908552448801DA8
:1013F000005D032806DD00212148801D01550420E1
:101400001D4908550EE000201C49087001211C48A8
:10141000001D015501201A49091F88730020164933
:10142000085500BF00BF601CC4B2022C93DB00242F
:101430001DE0134830F814004EF66021884207DAA8
:101440000F4830F81400401C81B20D4820F81410E9
:101450000B48801D005DFA2807DA0948801D005DF1
:10146000401CC1B20648801D0155601CC4B2022C4C
:10147000DFDB70BD001001406B0100206A0100201D
:1014800010020020704710B500F002F810BD0000F7
:101490000CB50020019000903348006840F4803083
:1014A0003149086000BF3048006800F40030009007
:1014B0000198401C0190009818B90198B0F5A06FF0
:1014C000F1D12948006800F4003010B101200090EB
:1014D00001E0002000900098012843D123480068D3
:1014E00040F01000214908600846006820F0030021
:1014F00008600846006840F0020008601A4840682A
:10150000194948600846406848600846406840F409
:10151000806048600846406820F47C1048600846B7
:10152000406840F4E81048600846006840F0807069
:10153000086000BF0C48006800F000700028F9D077
:101540000948406820F003000749486008464068A1
:1015500040F00200486000BF0348406800F00C0003
:101560000828F9D10CBD0000001002400020024004
:101570004A1C02807047704710B51348006840F05D
:1015800001001149086008464068104908400E49AA
:101590004860084600680E4908400B490860084644
:1015A000006820F4802008600846406820F4FE00AF
:1015B00048604FF41F008860FFF765FF4FF0006040
:1015C0000449086010BD0000001002400000FFF850
:1015D000FFFFF6FE08ED00E010B50121880700F0DE
:1015E0007DF9002831D0194800F024FDFFF7AEFE48
:1015F00017480088401C1649088008460088B0F546
:10160000FA7F09DB002008801248007810B91248E0
:10161000007808B1FFF74AF910480088401C0F49CC
:1016200008800846008832280BDB002008800C4820
:10163000007808B9012000E0002009490870FFF790
:101640007DFD0121880700F046F810BD0000002054
:1016500014000020160000201B0000201C000020A9
:101660001E0000207FB505460C464FF4A060FFF732
:101670005BFD01210846FFF7BFFD4FF0804000F001
:1016800039F8ADF80850ADF804400020ADF8060078
:10169000ADF80A0001A94FF0804000F039F90121AE
:1016A000880700F018F801221146900700F027F98A
:1016B0000121880700F012F81C208DF8000000209E
:1016C0008DF8010001208DF802008DF803006846B6
:1016D000FFF7F2FC7FBDCA430282704721B1028846
:1016E00042F00102028004E002884FF6FE731A40C5
:1016F0000280704710B504466848844208D1012131
:10170000C014FFF7A9FD0021E014FFF7A5FDC4E018
:10171000B4F1804F08D101210846FFF77DFD00217B
:101720000120FFF779FDB8E05D48844208D101212E
:101730000220FFF771FD00210220FFF76DFDACE0F4
:101740005848844208D101210420FFF765FD00219B
:101750000420FFF761FDA0E05348844208D1012135
:101760000820FFF759FD00210820FFF755FD94E000
:101770004E48844208D101211020FFF74DFD002181
:101780001020FFF749FD88E04948844208D1012133
:101790002020FFF741FD00212020FFF73DFD7CE0E8
:1017A0004448844208D101214014FFF755FD00212F
:1017B0006014FFF751FD70E03F48844209D10121D8
:1017C000C804FFF749FD00214FF40020FFF744FD56
:1017D00063E03A48844209D101210805FFF73CFD46
:1017E00000214FF48010FFF737FD56E03448844263
:1017F00009D101214805FFF72FFD00214FF400100A
:10180000FFF72AFD49E02F48844208D101214020FA
:10181000FFF702FD00214020FFF7FEFC3DE02A48D3
:10182000844208D101218020FFF7F6FC00218020AE
:10183000FFF7F2FC31E02548844208D101218015F0
:10184000FFF7EAFC0021A015FFF7E6FC25E02048A1
:10185000844209D101210804FFF7FEFC00214FF466
:101860008030FFF7F9FC18E01A48844209D10121C1
:101870004804FFF7F1FC00214FF40030FFF7ECFCC7
:101880000BE01548844208D101218804FFF7E4FCED
:1018900000214FF48020FFF7DFFC10BD002C014039
:1018A0000004004000080040000C00400010004010
:1018B0000014004000340140004C01400050014041
:1018C0000054014000180040001C0040002000406F
:1018D00000400140004401400048014030B502464C
:1018E000002000230024158A05EA0103958905EAF2
:1018F000010413B10CB1012000E0002030BD1AB189
:1019000083890B43838102E083898B438381704702
:10191000002202881D4B98420ED01D4B98420BD0DE
:10192000B0F1804F08D01B4B984205D01A4B98421B
:1019300002D01A4B984204D14FF68F731A404B884D
:101940001A43174B984207D0164B984204D04FF6D3
:10195000FF431A40CB881A4302808B8883850B880B
:1019600003850A4B98420BD0094B984208D00E4B86
:10197000984205D00D4B984202D00D4B984201D1B0
:101980000B7A03860123838270470000002C0140FC
:10199000003401400004004000080040000C0040FA
:1019A000001000400014004000400140004401408D
:1019B0000048014008B50020009040F2255122481F
:1019C00000F053F900283DD040F225511E4800F0A8
:1019D000D6F81E484088012804D100201C49087010
:1019E0001C49087000201949488008460521C26832
:1019F0009047154800F0F4F91749154A12788854B1
:101A000013480078401C1249087013480078AA282F
:101A100004D0002008700F49087008BD0C480078F9
:101A20000E280FDB002240F22551074800F047F94D
:101A30000120094981F87E00002005490870054908
:101A40000870EAE700BFE8E7003801400000002026
:101A500064010020650100208C01002070B505465E
:101A60000E464FF400611348FFF7D7F9002240F209
:101A70002551114800F023F900240CE0295D0E489F
:101A800000F0B3F900BF40210B4800F0E1F8002856
:101A9000F9D0601CC4B2B442F0DB012240F22551FF
:101AA000054800F00CF94FF400610248FFF7B3F964
:101AB00070BD0000000801400038014010B586B03C
:101AC000044601218804FFF797FB01210820FFF756
:101AD000B3FB4FF48060ADF8140003208DF81600BE
:101AE00018208DF8170005A91248FFF7B7F84FF432
:101AF0000060ADF8140004208DF8170005A90D480A
:101B0000FFF7ACF801940020ADF80800ADF80A002A
:101B1000ADF80C00ADF810000C20ADF80E0001A9D6
:101B2000054800F0F1F80121034800F037F806B04D
:101B300010BD0000000C01400048004010B50446F4
:101B400000BF8021084800F083F80028F9D0214622
:101B5000054800F04AF900BF4021034800F078F83A
:101B60000028F9D010BD00000048004001F40072C8
:101B7000B2F5007F00D100BFCA430280704710B5A4
:101B80000022002340F66A14A14200D100BF0A12CD
:101B900001249440A3B2DC43048010BD21B18289AA
:101BA00042F40052828104E082894DF6FF731A40AC
:101BB0008281704710B504462048844209D1012132
:101BC0008803FFF749FB00214FF48040FFF744FBF7
:101BD00032E01B48844209D101214804FFF71CFB75
:101BE00000214FF40030FFF717FB25E01548844231
:101BF00009D101218804FFF70FFB00214FF4802059
:101C0000FFF70AFB18E01048844209D10121C804FB
:101C1000FFF702FB00214FF40020FFF7FDFA0BE075
:101C20000A48844208D101210805FFF7F5FA00218E
:101C30004FF48010FFF7F0FA10BD000000380140AB
:101C40000044004000480040004C0040005000406C
:101C500002460020B1F5007F00D100BF13880B4081
:101C60000BB1012000E00020704770B5024600244F
:101C700000230025002040F66A16B14200D100BFC3
:101C8000C1F3421501F01F03012606FA03F3012DEB
:101C900002D19689334006E0022D02D1168A3340E4
:101CA00001E0968A33400C12012606FA04F41688E5
:101CB000344013B10CB1012000E0002070BDF0B53C
:101CC0000346002400260025002040F66A17B9428A
:101CD00000D100BF1846C1F3421401F01F060127CE
:101CE00007FA06F5012C01D10C3004E0022C01D1D9
:101CF000103000E014301AB107682F43076002E08B
:101D00000768AF430760F0BD2DE9F04786B0054690
:101D10000E460024A24600BFA1460027B08900B1AC
:101D200000BF2F462C8A4CF6FF700440F088044315
:101D30002C82AC894EF6F3100440B08831890843F8
:101D4000718908430443AC81AC8A4FF6FF400440DC
:101D5000B0890443AC8201A8FFF78EFA1F4887427E
:101D600002D1DDF810A001E0DDF80CA0A88900F494
:101D7000004040B10AEBCA0000EB0A10316849008C
:101D8000B0FBF1F807E00AEBCA0000EB0A1031687B
:101D90008900B0FBF1F86420B8FBF0F004012009E1
:101DA000642101FB1089A88900F4004040B1322071
:101DB00000EBC900B0FBF1F000F00700044308E0BD
:101DC000322000EB09106421B0FBF1F000F00F00AD
:101DD00004432C8106B0BDE8F087000000380140C4
:101DE00001468888C0F308007047C1F3080282806A
:101DF000704700BFFEE7000010B586B004464FF400
:101E0000A060FFF791F901218803FFF715FA01217E
:101E10000420FFF711FA2F48FFF7CCFE4FF40070B3
:101E2000ADF8140003208DF8160018208DF8170067
:101E300005A92948FEF712FF4FF48060ADF81400A1
:101E400004208DF8170005A92348FEF707FF4FF47B
:101E50000060ADF8140003208DF8160010208DF8F6
:101E6000170005A91C48FEF7F9FE01940020ADF803
:101E70000800ADF80A00ADF80C00ADF810000C2019
:101E8000ADF80E0001A91348FFF73EFF20211148CD
:101E9000FFF76CFE012240F225510E48FFF70FFFBD
:101EA00025208DF8000000208DF801008DF802003B
:101EB00001208DF803006846FFF7FEF84FF400613B
:101EC0000548FEF7A8FF01210248FFF767FE06B0AC
:101ED00010BD000000380140000801400024FEF75A
:101EE0009DFBFFF781F847214FF47A70FFF7BAFBAB
:101EF0004FF4E130FFF7E2FDFEF768FB3CA0FEF790
:101F000055FE4FF4E130FFF777FF70E04148C0889D
:101F1000012831D100203F49C880AA203E4981F8DC
:101F20003F0001F14000FEF783FF3B484330FEF7DE
:101F30003BFB0C2138483F30FFF7A2F804463648F7
:101F400080F84B40210A80F84C10002005E032490F
:101F50003F31095C314A1154401C0E28F7DB012146
:101F60002F4A11700E212C483F30FFF777FD29488A
:101F70000F21C268001D9047274890F87E00012875
:101F800035D10C212448FFF77BF804462248007B1A
:101F90002149497B00EB0120A04213D1002004E03D
:101FA0001D49095C1F4A1154401C0E28F8DB002112
:101FB0001D4A117001211D4A11701748401CFEF77F
:101FC000A7FF10E0002004E01349095C154A1154F2
:101FD000401C0E28F8DB16490C800121124A1170B2
:101FE000124A117000BF00200B4981F87E008DE776
:101FF00053656E64204D6F64653A205553415254C9
:102000003320446562756720496E6974204F4B0D1B
:102010000A000000000000208C0100207E0100204A
:102020001B000020700100201A0000201600002074
:102030001800002010B5014608460823002200BF02
:1020400014E00488012C03DD0488641E048009E088
:102050000488012C06D100240480801C0124047013
:10206000801C01E0001D00BF141DA2B29A42E8DBF3
:1020700010BD0000307800000000000000000000EB
:10208000A020000800000020700100006C01000882
:10209000402100087001002010070000D001000856
:1020A0001012050000000A0001007D0600087115ED
:1020B00000080D08021200015005080140010852F5
:1020C0000808521008522008524008528030115718
:1020D00041085210082119521048110852020852A2
:1020E0000408520808521008522008524008528032
:1020F0003831582108520208520408520808521078
:10210000085220085240082180520C80520C805204
:102110000C78520C78520C78520C78520C78520C85
:1021200078520C78520C78520C78952B20050102CD
:10213000030404B40806070809020406500000005E
:0400000508000131BD
:00000001FF
