:020000040800F2
:10000000C007002089010008DB0D00088B0D0008E7
:10001000A10D000859060008FB18000800000000A8
:10002000000000000000000000000000B9100008FF
:10003000A508000800000000ED0E0008AB11000844
:10004000A3010008A3010008A3010008A301000800
:10005000A3010008A3010008A3010008A3010008F0
:10006000A3010008A7080008A3010008A3010008D5
:10007000A3010008A3010008A3010008A3010008D0
:10008000A3010008A3010008A3010008A3010008C0
:10009000A3010008A3010008A3010008A3010008B0
:1000A000A3010008A3010008A3010008A3010008A0
:1000B0000D120008A3010008A3010008A301000815
:1000C000A3010008A3010008A3010008A301000880
:1000D000A30100087D150008A30100089D15000874
:1000E000A3010008A3010008A301000800F002F822
:1000F00000F03AF80AA090E8000C82448344AAF188
:100100000107DA4501D100F02FF8AFF2090EBAE885
:100110000F0013F0010F18BFFB1A43F0010318473B
:10012000E024000000250000103A24BF78C878C100
:10013000FAD8520724BF30C830C144BF04680C60ED
:10014000704700000023002400250026103A28BF35
:1001500078C1FBD8520728BF30C148BF0B60704739
:100160001FB51FBD10B510BD00F031F81146FFF7E7
:10017000F7FF01F063FC00F04FF803B4FFF7F2FF64
:1001800003BC00F057F800000948804709480047C1
:10019000FEE7FEE7FEE7FEE7FEE7FEE7FEE7FEE737
:1001A000FEE7FEE704480549054A064B7047000094
:1001B000AD110008ED000008C0010020C0070020BC
:1001C000C0030020C0030020704770477047754689
:1001D00000F02CF8AE4605006946534620F00700B3
:1001E000854618B020B5FFF7DDFFBDE820404FF091
:1001F00000064FF000074FF000084FF0000B21F011
:100200000701AC46ACE8C009ACE8C009ACE8C009DD
:10021000ACE8C0098D46704710B50446AFF30080C6
:100220002046BDE81040FFF7A8BF00000048704717
:100230005C01002001491820ABBEFEE72600020049
:10024000704721B1826842F00102826003E0826857
:1002500022F001028260704700B587B0002006904E
:1002600005900121480200F07FFE0020009001204F
:100270008DF804008DF805004FF4602002900020F6
:10028000039005208DF8100069462D4800F07AF89B
:10029000002000F02DFE012000F00EF905230122C0
:1002A0000021274800F096F8052302220121244866
:1002B00000F090F8052303220221214800F08AF87B
:1002C0000523042203211E4800F084F805231A4662
:1002D00004211B4800F07EF801211948FFF7B1FF07
:1002E000002006900CE00020059002E00598401CDC
:1002F00005900598B0F57A7FF8DB0698401C0690CB
:100300000698B0F57A7FEEDB01210D4800F01AF86F
:100310000B4800F0BBF800BF094800F028F800289F
:10032000FAD1074800F0C2F800BF054800F015F800
:100330000028FAD10121024800F0ADF807B000BD55
:100340000024014021B1826842F48072826003E09F
:10035000826822F4807282607047014600208A68B9
:1003600002F004020AB1012000E0002070470146BB
:1003700000208A6802F008020AB1012000E0002093
:100380007047000030B502460020002350680F4C33
:1003900020400D790C6844EA0524204350609068A1
:1003A0000B4C2040D1E902542C434D7944EA4504DA
:1003B00020439060D06A20F470000C7C641EE4B28C
:1003C000234340EA0350D06230BD0000FFFEF0FF3F
:1003D000FDF7F1FFF0B504460D4600200021092D80
:1003E00011DDE068A5F10A0606EB4607072606FAC6
:1003F00007F18843A5F10A0606EB460603FA06F163
:100400000843E0600CE0206905EB4507072606FA83
:1004100007F1884305EB450603FA06F1084320611E
:10042000072A0FDA606B561E06EB86071F2606FAB0
:1004300007F18843561E06EB860605FA06F10843C7
:10044000606322E00D2A0FDA206BD61F06EB8607C9
:100450001F2606FA07F18843D61F06EB860605FA23
:1004600006F10843206310E0E06AA2F10D0606EBF6
:1004700086071F2606FA07F18843A2F10D0606EB50
:10048000860605FA06F10843E062F0BD816841F096
:1004900008018160704721B1826842F4A002826045
:1004A00003E0826822F4A00282607047816841F014
:1004B000040181607047000030B10749096841F4C8
:1004C0000001054A116005E00349096821F40001B3
:1004D000014A1160704700000824014008B501205E
:1004E000ADF8000000208DF803006946174800F0C1
:1004F0006BFB0220ADF8000000208DF80300694678
:10050000124800F061FB0420ADF8000000208DF8D7
:10051000030069460D4800F057FB0820ADF80000C5
:1005200000208DF803006946084800F04DFB1020BC
:10053000ADF8000000208DF803006946034800F084
:1005400043FBFFF789FE00F0B9F808BD0008014041
:100550000146088808B1012070470120FCE7F0B58A
:1005600089B004460B4600200790029000250095B4
:1005700001950021002200BF05E034F8110003AD11
:1005800045F82100491C9942F7DB00211EE00022BA
:1005900017E003A850F8225003AE501C56F8200074
:1005A00085420DDD551C56F8250003AD55F8226037
:1005B00003AF551C47F8256003AD45F8220000BF86
:1005C000521C581E401A9042E3DC491C581E8842B7
:1005D000DDDC012106E003A850F82100079D284436
:1005E0000790491C581E8842F5DC981E079DB5FBF4
:1005F000F0F00790079880B209B0F0BD70B51349CC
:10060000B1F1807F00D31DE021F07F40401E4FF00C
:10061000E022506150170F22002807DA13071D0E41
:100620000B4B00F00F04241F1D5503E013071C0E95
:10063000084B1C5400BF00204FF0E02290610720BF
:10064000106100BF00F018FA70BD000080FC0A00C5
:1006500018ED00E000E400E000BFFEE700210180AB
:100660007047000008B50121102000F07DFC4FF418
:100670000050ADF8000002208DF8020010208DF827
:1006800003006946054800F09FFA4FF40051034803
:1006900000F077FBAA200249087008BD0010014055
:1006A0007C00002021B1026842F00102026004E0F7
:1006B00002684FF6FE731A400260704700B58BB0B7
:1006C0000121084600F020FC114800F027F81148ED
:1006D0000090114801900020029005200390002016
:1006E0000490802005904000069080000790202014
:1006F00008900002099000200A906946044800F022
:10070000B3F801210248FFF7CDFF0BB000BD000098
:10071000080002404C240140D000002001684FF640
:10072000FE72114001600021016041608160C16082
:100730004B49884208D14A490839496841F00F01BC
:10074000474A083A51608AE045491431884208D145
:1007500043490839496841F0F001414A083A51607B
:100760007DE03F492831884208D13D490839496830
:1007700041F470613A4A083A516070E038493C31BE
:10078000884208D136490839496841F47041344AF1
:10079000083A516063E032495031884208D130490B
:1007A0000839496841F470212D4A083A516056E0F1
:1007B0002B496431884208D129490839496841F4F4
:1007C0007001274A083A516049E02549783188424A
:1007D00008D123490839496841F07061204A083A34
:1007E00051603CE01F49884206D1011F096841F071
:1007F0000F01021F116032E01A491431884208D1FA
:100800001849091F096841F0F001164A121F1160CA
:1008100025E014492831884208D11249091F096886
:1008200041F470610F4A121F116018E00D493C310C
:10083000884208D10B49091F096841F47041094AEF
:10084000121F11600BE007495031884207D105495A
:10085000091F096841F47021024A121F1160704794
:10086000080002400804024010B50022026847F662
:10087000F0739A430C6A8B6823430C6923434C69D9
:1008800023438C692343CC6923434C6A23438C6AFA
:1008900023431A430260CB6843600B6883604B6854
:1008A000C36010BD704710B5082000F00BF810B100
:1008B000082000F001F810BD0149086070470000F1
:1008C00014040140014600200022074B1B6803EA84
:1008D0000102054B14331B680B4013B10AB1012010
:1008E00000E000207047000000040140F8B5054614
:1008F0000E46002400F0A0F8352000F017F80FE0B5
:100900004FF4806101FB045000F016F800909DF850
:100910000000042803D000F04FF80020F8BD641C4C
:10092000B442EDDB00F048F80120F7E70149C86068
:10093000704700000020024030B5044604254FF403
:10094000302000F085F80546042D17D10C480069C9
:1009500040F002000A49086108464461006940F01D
:10096000400008614FF4302000F072F8054604485A
:10097000006941F6FD71084001490861284630BD13
:100980000020024004200B49C96801F0010109B1AF
:1009900001200EE00749C96801F0040109B10220F5
:1009A00007E00449C96801F0100109B1032000E023
:1009B00004207047002002400348006940F0800096
:1009C00001490861704700000020024078B50646E2
:1009D0000C46042500200090E80200F039F8054696
:1009E000042D24D11348006940F001001149086129
:1009F0003480E80200F02CF80546042D10D1B01C1C
:100A00000090200C00990880E80200F021F80546CB
:100A10000848006941F6FE7108400649086106E091
:100A20000448006941F6FE71084002490861284601
:100A300078BD000000200240024803494860034896
:100A4000486070472301674500200240AB89EFCD25
:100A500000B502460423FFF795FF034603E0FFF7C6
:100A600091FF0346521E012B01D1002AF7D102B992
:100A70000523184600BD000008B50121042000F040
:100A800073FA0121102000F06FFA0121082000F014
:100A90006BFA0121042000F067FA0121084600F0FA
:100AA00063FA0121444800F01BF94FF40040ADF80F
:100AB000000048208DF803006946404800F084F8A3
:100AC0004FF48050ADF8000002208DF80200102095
:100AD0008DF8030069463A4800F076F84FF400506C
:100AE000ADF8000002208DF8020010208DF8030000
:100AF0006946334800F068F84020ADF80000022055
:100B00008DF8020048208DF8030069462B4800F05C
:100B10005BF88020ADF8000002208DF8020048202C
:100B20008DF803006946254800F04EF80120ADF825
:100B3000000002208DF8020048208DF8030069466D
:100B40001F4800F041F88020ADF8000002208DF829
:100B5000020048208DF803006946194800F034F877
:100B60004FF48070ADF8000002208DF8020048209C
:100B70008DF803006946124800F026F84FF4007023
:100B8000ADF8000002208DF8020048208DF8030027
:100B900069460B4800F018F84FF40051094800F07E
:100BA000F0F84FF48051064800F0EDF84FF4005192
:100BB000034800F0E6F808BD0002300000080140DC
:100BC000000C0140001001402DE9F04102460025D3
:100BD0000026002000230024002791F803C00CF019
:100BE0000F0591F803C00CF0100CBCF1000F03D0FE
:100BF00091F802C04CEA050591F800C0BCF1000F65
:100C000031D0146800202BE04FF0010C0CFA00F3F7
:100C1000B1F800C00CEA03069E4220D183004FF0D9
:100C20000F0C0CFA03F7BC4305FA03FC4CEA04046E
:100C300091F803C0BCF1280F06D14FF0010C0CFA5B
:100C400000FCC2F814C00AE091F803C0BCF1480FE0
:100C500005D14FF0010C0CFA00FCC2F810C0401C8A
:100C60000828D1D31460B1F800C0BCF1FF0F34DD07
:100C7000546800202EE000F1080C4FF0010808FA3B
:100C80000CF3B1F800C00CEA03069E4221D18300A8
:100C90004FF00F0C0CFA03F7BC4305FA03FC4CEAC7
:100CA000040491F803C0BCF1280F05D100F1080C31
:100CB00008FA0CF8C2F8148091F803C0BCF1480F90
:100CC00007D100F1080C4FF0010808FA0CF8C2F83F
:100CD0001080401C0828CED35460BDE8F08100008D
:100CE000F0B50A46002300240021002500F000464C
:100CF000B6F1004F02D11D4EF16901E01B4E716843
:100D0000C0F3034583B200F44016B6F5401F08D186
:100D100021F07061154E766826F07066134F7E6084
:100D200012E000F48016B6F5801F06D1032606FAFD
:100D300005F4A14341F0706106E0460D360103FA67
:100D400006F6B14341F0706122B1460D360103FA57
:100D500006F6314300F00046B6F1004F02D1034ED3
:100D6000F16101E0014E7160F0BD00000000014042
:100D70000246002093680B400BB1012000E00020E8
:100D80007047416170470161704700BFFEE7000096
:100D90004AF6AA2001490860704700000030004070
:100DA00000BFFEE7F0B502460B464AF201064FF6D9
:100DB000FF7000210EE0575C7840002406E000F050
:100DC0000105401005B17040671CFCB2082CF6DB31
:100DD0004F1CF9B29942EEDBF0BD704770B50021AF
:100DE00000230F22C47804B3154C246804F4E06493
:100DF000C4F5E064210AC1F10403CA40447804FA4E
:100E000003F184781440214309010E4C0678A15562
:100E1000047804F01F050124AC4005786D11AD0085
:100E200005F1E025C5F8004109E0047804F01F054C
:100E30000124AC40044D0678761145F8264070BD7B
:100E40000CED00E000E400E080E100E00249014335
:100E5000024A1160704700000000FA050CED00E046
:100E600010B500241E4800F015F91D4800685528EB
:100E70001AD000BF0EE000211948083040F82410B5
:100E80001849283040F824100021143840F8241064
:100E9000601CC4B2052CEEDB0020114948605520CF
:100EA000086000F0B1FD02E001200D494860002417
:100EB00012E00B48083050F82410283050F8240075
:100EC000081A4FF4FA71B0FBF1F0C4EBC401064A02
:100ED00022F81100601CC4B2052CEADB10BD000032
:100EE00038000020FFFF0F008A000020704700003C
:100EF00001460020034A506820F4404008435060F7
:100F0000704700000010024029B1064A52690243AE
:100F1000044B5A6104E0034A52698243014B5A610F
:100F2000704700000010024029B1064AD26902430E
:100F3000044BDA6104E0034AD2698243014BDA616F
:100F4000704700000010024029B1064A12690243AE
:100F5000044B1A6104E0034A12698243014B1A618F
:100F6000704700000010024029B1064A926902430E
:100F7000044B9A6104E0034A92698243014B9A61EF
:100F8000704700000010024029B1064AD2680243AF
:100F9000044BDA6004E0034AD2688243014BDA6012
:100FA000704700000010024030B5002100220024EC
:100FB00000232D4D6D6805F00C0121B1042905D0E9
:100FC000082923D105E0294D056022E0274D056061
:100FD0001FE0254D6D6805F47012234D6D6805F412
:100FE0008034022505EB92421CB9214D5543056022
:100FF0000BE01D4D6D6805F400351DB11C4D5543CA
:10100000056002E0194D5543056002E0174D05608B
:1010100000BF00BF144D6D6805F0F0010909154DC2
:101020006B5C0568DD4045600F4D6D6805F4E0615F
:10103000090A104D6B5C4568DD4085600A4D6D689E
:1010400005F46051C90A0B4D6B5C4568DD40C56015
:10105000054D6D6805F44041890B074D6B5CC56813
:10106000B5FBF3F5056130BD0010024000127A00B7
:1010700000093D00200000203000002030B503466C
:1010800000201C4603E025780D54641C401C90424F
:10109000F9D330BD70B50446064E44222146304691
:1010A000FFF7ECFF0546442D01D0002070BD012064
:1010B000FCE7000000A40008704710B500F002F83B
:1010C00010BD00000CB5002001900090334800686E
:1010D00040F480303149086000BF3048006800F4B7
:1010E000003000900198401C0190009818B90198B8
:1010F000B0F5A06FF1D12948006800F4003010B1BC
:101100000120009001E0002000900098012843D1C8
:101110002348006840F01000214908600846006834
:1011200020F0030008600846006840F002000860F4
:101130001A484068194948600846406848600846AF
:10114000406840F4806048600846406820F47C10A5
:1011500048600846406840F4E81048600846006867
:1011600040F08070086000BF0C48006800F000701C
:101170000028F9D00948406820F00300074948607A
:101180000846406840F00200486000BF03484068DD
:1011900000F00C000828F9D10CBD0000001002403E
:1011A000002002404A1C02807047704710B5134867
:1011B000006840F001001149086008464068104985
:1011C00008400E494860084600680E4908400B492F
:1011D00008600846006820F48020086008464068DF
:1011E00020F4FE0048604FF41F008860FFF765FFA1
:1011F0004FF000600449086010BD0000001002407C
:101200000000FFF8FFFFF6FE08ED00E010B5012139
:10121000880700F047F930B1034800F045FE01218E
:10122000880700F03CF810BD000000207FB505469F
:101230000C464FF4A060FFF709FE01210846FFF7B6
:1012400073FE4FF0804000F039F8ADF80850ADF86B
:1012500004400020ADF80600ADF80A0001A94FF0E7
:10126000804000F039F90121880700F018F80122C8
:101270001146900700F027F90121880700F012F8C5
:101280001C208DF8000000208DF8010001208DF851
:1012900002008DF803006846FFF7A0FD7FBDCA433A
:1012A0000282704721B1028842F00102028004E00C
:1012B00002884FF6FE731A400280704710B504464C
:1012C0006848844208D10121C014FFF75DFE002167
:1012D000E014FFF759FEC4E0B4F1804F08D10121BA
:1012E0000846FFF731FE00210120FFF72DFEB8E090
:1012F0005D48844208D101210220FFF725FE00212C
:101300000220FFF721FEACE05848844208D10121B9
:101310000420FFF719FE00210420FFF715FEA0E0CE
:101320005348844208D101210820FFF70DFE002117
:101330000820FFF709FE94E04E48844208D10121BD
:101340001020FFF701FE00211020FFF7FDFD88E0CF
:101350004948844208D101212020FFF7F5FD0021F2
:101360002020FFF7F1FD7CE04448844208D10121B0
:101370004014FFF709FE00216014FFF705FE70E03E
:101380003F48844209D10121C804FFF7FDFD002137
:101390004FF40020FFF7F8FD63E03A48844209D19A
:1013A00001210805FFF7F0FD00214FF48010FFF741
:1013B000EBFD56E03448844209D101214805FFF78E
:1013C000E3FD00214FF40010FFF7DEFD49E02F4858
:1013D000844208D101214020FFF7B6FD00214020C2
:1013E000FFF7B2FD3DE02A48844208D10121802068
:1013F000FFF7AAFD00218020FFF7A6FD31E0254878
:10140000844208D101218015FFF79EFD0021A0151F
:10141000FFF79AFD25E02048844209D10121080404
:10142000FFF7B2FD00214FF48030FFF7ADFD18E06B
:101430001A48844209D101214804FFF7A5FD002183
:101440004FF40030FFF7A0FD0BE01548844208D1AF
:1014500001218804FFF798FD00214FF48020FFF759
:1014600093FD10BD002C0140000400400008004026
:10147000000C004000100040001400400034014007
:10148000004C014000500140005401400018004051
:10149000001C00400020004000400140004401408A
:1014A0000048014030B50246002000230024158A80
:1014B00005EA0103958905EA010413B10CB1012085
:1014C00000E0002030BD1AB183890B43838102E024
:1014D00083898B4383817047002202881D4B984289
:1014E0000ED01D4B98420BD0B0F1804F08D01B4B53
:1014F000984205D01A4B984202D01A4B984204D118
:101500004FF68F731A404B881A43174B984207D0F7
:10151000164B984204D04FF6FF431A40CB881A432B
:1015200002808B8883850B8803850A4B98420BD0F9
:10153000094B984208D00E4B984205D00D4B98426B
:1015400002D00D4B984201D10B7A0386012383828E
:1015500070470000002C01400034014000040040AE
:1015600000080040000C0040001000400014004043
:1015700000400140004401400048014010B540F2E5
:101580002551054800F0F5F820B140F225510248F8
:1015900000F079F810BD00000038014008B50020C7
:1015A000009040F225511C4800F0E3F8002831D0AB
:1015B00040F22551184800F066F818484089012883
:1015C00004D10020164908701649087000201349FC
:1015D0004881084605218269083090470E4800F08E
:1015E00083F911490E4A1278885408460078AA28CF
:1015F00002D1012081F87E0009480078401C08498A
:10160000087000200549C88108464FF49671826928
:101610000C30904708BD000000480040000000204A
:101620003500002036000020DA00002070B50546A5
:101630000E46002240F225510D4800F0C4F8002467
:101640000CE0295D0A4800F054F900BF80210848E9
:1016500000F082F80028F9D0601CC4B2B442F0DB7C
:10166000012240F22551024800F0ADF870BD0000A3
:101670000048004001F40072B2F5007F00D100BFC5
:10168000CA430280704710B50022002340F66A1456
:10169000A14200D100BF0A1201249440A3B2DC434E
:1016A000048010BD21B1828942F40052828104E09D
:1016B00082894DF6FF731A408281704710B5044647
:1016C0002048844209D101218803FFF75DFC0021F5
:1016D0004FF48040FFF758FC32E01B48844209D1A8
:1016E00001214804FFF730FC00214FF40030FFF7E0
:1016F0002BFC25E01548844209D101218804FFF71D
:1017000023FC00214FF48020FFF71EFC18E0104856
:10171000844209D10121C804FFF716FC00214FF4CF
:101720000020FFF711FC0BE00A48844208D1012198
:101730000805FFF709FC00214FF48010FFF704FCB7
:1017400010BD000000380140004400400048004047
:10175000004C00400050004002460020B1F5007FE0
:1017600000D100BF13880B400BB1012000E0002026
:10177000704770B50246002400230025002040F683
:101780006A16B14200D100BFC1F3421501F01F0338
:10179000012606FA03F3012D02D19689334006E0B3
:1017A000022D02D1168A334001E0968A33400C1292
:1017B000012606FA04F41688344013B10CB1012056
:1017C00000E0002070BDF0B503460024002600258F
:1017D000002040F66A17B94200D100BF1846C1F395
:1017E000421401F01F06012707FA06F5012C01D16A
:1017F0000C3004E0022C01D1103000E014301AB19A
:1018000007682F43076002E00768AF430760F0BD39
:101810002DE9F04786B005460E460024A24600BFDB
:10182000A1460027B08900B100BF2F462C8A4CF694
:10183000FF700440F08804432C82AC894EF6F3100C
:101840000440B08831890843718908430443AC815E
:10185000AC8A4FF6FF400440B0890443AC8201A833
:10186000FFF7A2FB1F48874202D1DDF810A001E07C
:10187000DDF80CA0A88900F4004040B10AEBCA00D2
:1018800000EB0A1031684900B0FBF1F807E00AEB01
:10189000CA0000EB0A1031688900B0FBF1F864203F
:1018A000B8FBF0F004012009642101FB1089A8892C
:1018B00000F4004040B1322000EBC900B0FBF1F071
:1018C00000F00700044308E0322000EB0910642117
:1018D000B0FBF1F000F00F0004432C8106B0BDE82E
:1018E000F08700000038014001468888C0F30800F6
:1018F0007047C1F308028280704700BFFEE7000016
:1019000010B586B004464FF48060FFF79FFA0121BE
:101910008804FFF709FB01210820FFF725FB254874
:10192000FFF7CCFE4FF48060ADF8140003208DF873
:10193000160018208DF8170005A91F48FFF744F975
:101940004FF40060ADF8140004208DF8170005A9CD
:101950001948FFF739F901940020ADF80800ADF8F7
:101960000A00ADF80C00ADF810000C20ADF80E0028
:1019700001A91048FFF74CFF20210E48FFF77AFE1F
:10198000012240F225510B48FFF71DFF27208DF85B
:10199000000000208DF801008DF8020001208DF874
:1019A00003006846FFF71AFA01210248FFF77AFEA2
:1019B00006B010BD00480040000C01402DE9F8437E
:1019C00005460E461746B0460024FFF735F8352089
:1019D000FEF7ACFF10E058F824102846FEF7F6FF9B
:1019E00000909DF80000042804D0FEF7E5FF0020D9
:1019F000BDE8F883641C2D1DB4EB970FEBD3FEF705
:101A0000DBFFA000F4E7000070B50A4D0121284675
:101A1000FEF76CFF08B9002070BD44220649284635
:101A2000FFF7CCFF0446442C01D00020F4E701204E
:101A3000F2E7000000A400083800002086B04FF054
:101A4000000AD3460024A146FEF7D8FDFFF708FAA6
:101A50004FF4E1511420FFF7E9FBFEF73FFD4FF48F
:101A60001650FFF74DFFFEF7FDFD00BF08E0002018
:101A7000C4EBC401F94A02EB41010873601CC4B213
:101A8000052CF4DB0DE2FFF783F9F548408A0128C5
:101A90007ED10020F2494882084601218269103037
:101AA0009047002496E0EF4830F81410C4EBC400CF
:101AB000EA4A02EB4000001DC4EBC402E74B03EB13
:101AC000420292F90C2020F81210C4EBC4011A460D
:101AD00002EB4101081D0421FEF741FDC4EBC401E6
:101AE000DE4A02EB41014880C4EBC400114601EB21
:101AF0004000007B401C40B2C4EBC40102EB41013A
:101B00000873C4EBC400114601EB400090F90C00CF
:101B100004285DDB0020C4EBC40102EB4101087323
:101B2000D14850F82400C4EBC40102EB41014988BC
:101B300088420AD2C4EBC400114601EB4000418840
:101B4000C94840F82410FFF75FFFC748283050F815
:101B50002400C4EBC401C14A02EB41014988884218
:101B60000BD9C4EBC400114601EB40004188BE48CC
:101B7000283040F82410FFF747FFBB48083840687A
:101B800030BB0120B849083948604FF000091AE01D
:101B900023E0B548143050F82900C9EBC901AF4A19
:101BA00002EB41014988884209D0C9EBC9001146BE
:101BB00001EB40004188AC48143040F8291009F18D
:101BC000010000F0FF09B9F1050FE2DBFFF71CFF90
:101BD000601CC4B2052CFFF666AFA148C08801287E
:101BE0007ED100209E49C880084603218269001DDD
:101BF000904700249AE0C4EBC400984901EB4000F0
:101C000041889948143050F82400C830814233D9B3
:101C1000954951F82420143151F82410511AA1F19A
:101C2000C80000F090FB0022904BCDE9000100F0CD
:101C300003FA07468846C4EBC401884A02EB410117
:101C40004A888949143151F82410511AA1F1C80069
:101C500000F079FB3A464346CDE9020100F0ECF989
:101C600005460022824B00F03FF9CDE9040100F067
:101C70003BFB0FFA80FA44E0C4EBC400774901EB68
:101C8000400041887848143050F82400C838814218
:101C900035D27549143151F82420143151F82410EB
:101CA000511AA1F1C80000F04EFB074600226F4B0D
:101CB00000F0C2F9CDE902016B49143151F824104A
:101CC000C4EBC402654B03EB42025288891AA1F1AE
:101CD000C80000F038FBCDE90001DDE9022300E097
:101CE000DFE000F0A9F905460022614B00F092FB0D
:101CF000CDE9040100F0F8FA0FFA80FA01E04FF0A4
:101D0000FA0ABAF5FA7F01DD4FF4FA7ABAF1000F58
:101D100001DA4FF0000ACAF30722564901F81420ED
:101D20006000401C01F800A0601CC4B2052CFFF646
:101D300062AF4FF400415048FFF71AF840B14D48E8
:101D4000401EC07A40F080004A49491EC87207E030
:101D50004848401EC07A00F07F004649491EC872BC
:101D600040214548FFF704F840B94248401EC07A78
:101D700040F001003F49491EC87207E03D48401E3F
:101D8000C07A00F0FE003B49491EC87280213A48E3
:101D9000FEF7EEFF40B93748401EC07A40F002001F
:101DA0003449491EC87207E03248401EC07A00F02C
:101DB000FD003049491EC87201213048FEF7D8FFA6
:101DC00040B92C48401EC07A40F004002949491E01
:101DD000C87207E02748401EC07A00F0FB00254982
:101DE000491EC87280212548FEF7C2FF40B921482C
:101DF000401EC07A40F008001E49491EC87207E024
:101E00001C48401EC07A00F0F7001A49491EC872EB
:101E10004FF480711948FEF7ABFF40B91548401EDA
:101E2000C07A40F010001349491EC87207E01148FB
:101E3000401EC07A00F0EF000E49491EC8724FF4F0
:101E400000710E48FEF794FFD0B90A48401EC07AD0
:101E500040F020000749491EC87217E08A000020A0
:101E600000000020D00000204000002000206F4033
:101E700000406F407D00002000080140000C014040
:101E80000848C07A00F0DF000649C8720C210548F6
:101E9000FEF788FF83460348A0F80CB00E21FFF739
:101EA000C5FBF0E57C00002010B501460846142370
:101EB000002200BF14E00488012C03DD0488641EA6
:101EC000048009E00488012C06D100240480801CD1
:101ED00001240470801C01E0001D00BF141DA2B28B
:101EE0009A42E8DB10BD000010B591EA030F48BF2D
:101EF00083F0004300F1A282841A71EB030C05D237
:101F0000121943EB0C03001B61EB0C01DFF824E119
:101F10004FEA1154A4EB135C1EEA430F18BF9EEA6C
:101F2000445F73D023EA0E03DCF1200E21EA045152
:101F300043F4801332D322FA0CFE10EB0E0023FA86
:101F40000CFE41EB0E01CCF1200E03FA0EFE10EB5D
:101F50000E0051F10001B1F5801FCCF1200E32D2FC
:101F600001EB045112FA0EF2BDE8104058BF704761
:101F7000401C38BF5FEA420218BF7047002814BFF8
:101F800020F0010041F100014FEA410313F5001F69
:101F900038BF7047A1F1C04100F036BA012A43EBC7
:101FA0000302ACF1200CDCF11F0E32BF4FF0000E2B
:101FB00023FA0CF310EB030041EB0451B4EB115F77
:101FC000D0D0A1EB045101F5801149085FEA30003F
:101FD00001EB04510ED350F1000038BF12FA0EFE8F
:101FE00008D1BDE81040C9E7401C38BF5FEA420293
:101FF000CAD1C3E7BDE810404FEA410313F5001F03
:1020000038BF7047A1F1C04100F0FEB99EEA445FBD
:1020100008D011EA5E0FBDE8104004BF01F0004196
:1020200000207047BDE8104070B500F09FF900BF78
:1020300064FBBE3E0000E0FF2DE9C04130B4DFF894
:10204000A0C23CEA111418BF3CEA131400F0EC8063
:1020500081EA03051CEA111444EAD57418BF1CEA8E
:10206000131500F0C780A4EB05044FF0004545EAC6
:10207000C12145EAC32341EA505143EA525304F1D6
:102080007F74994204F500344FEAC0204FEAC2221F
:1020900008BF904200F09C804FEA13650FF2401693
:1020A000765D4FEA134506FB05F7C7F1807706FB1F
:1020B00007F74FEAD737A7FB03687642C8F58038A1
:1020C000A7FB06CE38BFA8F1010807FB08E64FF0D2
:1020D000000EA6FB028CE6FB03CEDCF1000CCEF179
:1020E000004E38BFAEF1010EA6FB0C584FF00007B2
:1020F0004FF00005E6FB0E87A1FB08C6A0FB07CE4C
:1021000016EB0E0645F10005E1FB076515F1E04E03
:102110007EBFA4F580345FEA46066D4116F1800764
:1021200045F100054FEA17274FEA066647EA0567BB
:10213000A6F1DE46B6F1805F4FEA15251FD9384675
:1021400024F0010C05EBC471BCF1FE6F01EB0C1126
:1021500002D8F0BCBDE8008124425CBF01F5801EBE
:102160009EEAC47F02D4F0BCBDE80081244238D48A
:10217000F0BCA1F1C041BDE8004100F045B94FEA13
:10218000D22242EA43524FEAD323A7FB02864FEA08
:10219000D02040EA415007FB03661EEA0E0F4FEACB
:1021A000D12105FB026658BFA6EB0056B6EB0056E0
:1021B0004FEA520E4EEAC37E18EB0E0E56EB530E4C
:1021C000BDD518EB02085E417F1C55F10005B6E74E
:1021D0004FF480154FF000074FF000064FF0000855
:1021E000ADE7F0BC4FF0000001F1C04101F000414B
:1021F000BDE8008111EA0C1F0CEA131500D00CE0B9
:1022000013EA0C1F00F025804FF00000F0BC81EABB
:10221000030101F00041BDE80081F0BCBDE80041D0
:1022200081EA030100F0F0B8F0BCBDE8004170B5F0
:1022300000F09CF8097EFC3E00F007B881EA03013B
:102240004FF0000001F00041704781EA030100F007
:10225000DBB8F0BCBDE800414FF0000021497047F9
:10226000FFFDFBF9F7F5F4F2F0EEEDEBE9E8E6E45B
:10227000E3E1E0DEDDDBDAD8D7D5D4D3D1D0CFCDE2
:10228000CCCBCAC8C7C6C5C4C2C1C0BFBEBDBCBB1B
:10229000BAB9B8B7B6B5B4B3B2B1B0AFAEADACAB16
:1022A000AAA9A8A8A7A6A5A4A3A3A2A1A09F9F9EF0
:1022B0009D9C9C9B9A9999989797969595949393A2
:1022C000929191908F8F8E8E8D8C8C8B8B8A898939
:1022D00088888787868585848483838282818180BC
:1022E0000000FF070000F87F4FEA41034FEA535315
:1022F000A3F58063D3F11E03C8BFD3F1210C0CDD1D
:102300004FF0004242EAC12242EA505232FA03FC44
:102310008CEAE17CACEBE1707047102BC4BF00206D
:10232000704703F5787CBCF1FF3F04D06FF00042AA
:1023300082EA2100704770B500F018F849922480B5
:1023400000207047F2E7B0FA80F310FA03F10AD0E8
:10235000C3F11D0303F580634FEA41504FEA035276
:1023600002EBD12170474FF0000070470EF1020ED2
:102370002EF0030E5EF8046B364205D4012A43EBBF
:10238000030515F5001F12D8012841EB010C1CF5BF
:10239000001F0CD80ED14FEAD17C15F5001F0CEBB5
:1023A0004C0C0CF1020C08BF4CEBD37C04E04FF05A
:1023B000080C01E04FEAD37C0CEB4C0526FA05F63D
:1023C00006F00706B6F1040C06D20EEB860CBDE84B
:1023D00070404CF0010C6047DFE80CF0090B020282
:1023E0004FF000414FF00000A1F5002170BD1946EB
:1023F0001046012851EB010418BFD4F5001484BF26
:10240000002001F0004170BD0808A0F500114FEA5E
:102410003101704791EA030F10B581F000413FF59B
:102420006BAD83F0004300F009B8000010B591EAED
:10243000030F48BF83F000433FF55EAD841A71EB94
:10244000030C07D212198CF0004C43EB0C03001B59
:1024500061EB0C01DFF8A4E14FEA1154A4EB135C2B
:102460001EEA430F18BF9EEA445F00F0B08023EAE3
:102470006E03524221EA0451C3EB6E0338BF5B1E68
:10248000DCF1200E25D322FA0CFE10EB0E0043FAED
:102490000CFE41EB0E01CCF1200E03FA0EFE10EB08
:1024A0000E0051F10001CCF1200E29D412FA0EF2E7
:1024B00001EB0451BDE8104058BF7047401C1CBFE1
:1024C000B2F1004F704700280CBF491C20F00100FA
:1024D000704712EB020E43EB030218BF4FF0010EE0
:1024E0004EEA4202ACF1200CDCF11E0E54D943FA44
:1024F0000CFE10EB0E0051F1FF31CCF11E0ED5D5C4
:102500000EF1010E12FA0EFE404141EB010101EB0A
:10251000445C5FEA5C5C10D910EBDE7001EB0451A7
:1025200038BFBEF1004FBDE8104018BF704700280B
:102530000CBF491C20F00100704730D24FEAD42C68
:1025400011F5001124F400641BD0B1FA81F20B3AAA
:10255000A41AA41ED2F12003914030FA03F31943C8
:10256000904001EBCC71002C01EB0451BDE8104010
:10257000A8BF704701F1C0414FF0000001F00041D9
:102580007047B0FA80F310FA03F100D110BDE41ADD
:10259000173C4805C90AE4E701EB045110BD491096
:1025A00001EB0451BDE810404FEA300002E04FF06B
:1025B000000170474A0008BF0042F8D0B2F5001F82
:1025C00028BF704701F000414FF0000070479EEABD
:1025D000445F07D011EA5E0FBDE8104004BF002140
:1025E00000207047BDE8104070B5FFF7BFFE00BF88
:1025F00040DFF63E83F00041104670470000E0FFE8
:1026000020260008000000203800000028010008F3
:102610005826000838000020880700004401000800
:1026200096000000320000000A0000000A000000CE
:10263000050000005D060008A5110008510500080E
:102640000000000001020304010203040607080958
:0826500002040608000000006E
:04000005080000ED02
:00000001FF
