:020000040800F2
:1000000050080020150200085F0C0008510A000883
:10001000250C000815060008031800080000000061
:10002000000000000000000000000000AD0F00080C
:100030004508000800000000E50C00089F100008BB
:100040002F0200082F0200082F0200082F020008CC
:100050002F0200082F0200082F0200082F020008BC
:100060002F0200082F0200082F0200082F020008AC
:100070002F0200082F0200082F0200082F0200089C
:100080002F0200082F0200082F0200082F0200088C
:100090002F0200082F0200082F0200082F0200087C
:1000A0002F0200082F0200082F0200082F0200086C
:1000B000011100082F0200082F0200082F0200087B
:1000C0002F0200082F0200082F0200082F0200084C
:1000D0002F020008751400082F0200082F020008E4
:1000E0002F0200082F0200082F0200082F0200082C
:1000F0002F0200082F0200082F0200082F0200081C
:100100002F0200082F0200082F0200082F0200080B
:100110002F0200082F0200082F0200082F020008FB
:100120002F0200082F0200082F0200082F020008EB
:1001300000F002F800F05EF80AA090E8000C82449B
:100140008344AAF10107DA4501D100F053F8AFF278
:10015000090EBAE80F0013F0010F18BFFB1A43F0A5
:1001600001031847781800009818000010F8013BA8
:100170000A4413F0030408BF10F8014B1D1108BF17
:1001800010F8015B641E05D010F8016B641E01F8C5
:10019000016BF9D1002D15D010F8014B03F00C03C1
:1001A0000C2BA1EB04040ABF10F8013BA4EB831451
:1001B000A4EB032405F1010314F8016B5B1E01F8A5
:1001C000016BF9D5914238BF10F8013BD1D370478C
:1001D0000023002400250026103A28BF78C1FBD850
:1001E000520728BF30C148BF0B6070471FB51FBD05
:1001F00010B510BD00F031F81146FFF7F7FF01F020
:1002000075FB00F04FF803B4FFF7F2FF03BC00F0FA
:1002100057F800000948804709480047FEE7FEE715
:10022000FEE7FEE7FEE7FEE7FEE7FEE7FEE7FEE7A6
:1002300004480549054A064B70470000A110000814
:100240003101000850020020500800205004002016
:1002500050040020704770477047754600F02CF836
:10026000AE4605006946534620F00700854618B0A3
:1002700020B5FFF7DDFFBDE820404FF000064FF04E
:1002800000074FF000084FF0000B21F00701AC46CB
:10029000ACE8C009ACE8C009ACE8C009ACE8C009EA
:1002A0008D46704710B50446AFF300802046BDE888
:1002B0001040FFF7A8BF000000487047EC01002085
:1002C00001491820ABBEFEE726000200704721B1AD
:1002D000826842F00102826003E0826822F001023B
:1002E0008260704700B587B000200690059001211C
:1002F000480200F035FD0020009001208DF8040038
:100300008DF805004FF46020029000200390022039
:100310008DF810006946244800F068F8002000F0CD
:10032000E3FC012000F0FCF80523012211461E48E1
:1003300000F084F80523022211461B4800F07EF8E5
:1003400001211948FFF7C3FF002006900CE00020B0
:10035000059002E00598401C05900598B0F57A7F5D
:10036000F8DB0698401C06900698B0F57A7FEEDB25
:1003700001210D4800F01AF80B4800F0BBF800BF4F
:10038000094800F028F80028FAD1074800F0C2F820
:1003900000BF054800F015F80028FAD101210248F5
:1003A00000F0ADF807B000BD0024014021B1826823
:1003B00042F48072826003E0826822F4807282607C
:1003C0007047014600208A6802F004020AB1012049
:1003D00000E000207047014600208A6802F0080211
:1003E0000AB1012000E000207047000030B502464D
:1003F0000020002350680F4C20400D790C6844EA1F
:1004000005242043506090680B4C2040D1E90254F1
:100410002C434D7944EA450420439060D06A20F48F
:1004200070000C7C641EE4B2234340EA0350D062A7
:1004300030BD0000FFFEF0FFFDF7F1FFF0B5044610
:100440000D4600200021092D11DDE068A5F10A0606
:1004500006EB4607072606FA07F18843A5F10A06C8
:1004600006EB460603FA06F10843E0600CE020695B
:1004700005EB4507072606FA07F1884305EB450615
:1004800003FA06F108432061072A0FDA606B561E53
:1004900006EB86071F2606FA07F18843561E06EB71
:1004A000860605FA06F10843606322E00D2A0FDA9A
:1004B000206BD61F06EB86071F2606FA07F1884336
:1004C000D61F06EB860605FA06F10843206310E006
:1004D000E06AA2F10D0606EB86071F2606FA07F171
:1004E0008843A2F10D0606EB860605FA06F10843DD
:1004F000E062F0BD816841F008018160704721B180
:10050000826842F4A002826003E0826822F4A002C2
:1005100082607047816841F004018160704700008B
:1005200030B10749096841F40001054A116005E04E
:100530000349096821F40001014A11607047000075
:100540000824014007490988090A0170054909780A
:10055000417004494988090A817002498978C1704B
:10056000704700005201002010B500F001F810BDE6
:1005700008B50220ADF8000000208DF803006946A0
:10058000084800F07DF90420ADF8000000208DF847
:1005900003006946034800F073F9FFF7A3FE00F07B
:1005A0005DF808BD000801400146088808B1012037
:1005B00070470120FCE7000070B51349B1F1807F5E
:1005C00000D31DE021F07F40401E4FF0E02250613B
:1005D00050170F22002807DA13071D0E0B4B00F0EF
:1005E0000F04241F1D5503E013071C0E084B1C5459
:1005F00000BF00204FF0E02290610720106100BF93
:1006000000F022F970BD000080FC0A0018ED00E047
:1006100000E400E000BFFEE7002101807047000019
:100620000021044A22F8101000220249091D21F875
:1006300010207047DC010020002201490A54704755
:10064000E401002021B1026842F00102026004E0EE
:1006500002684FF6FE731A400260704700B58BB017
:100660000121084600F04CFB114800F027F8114822
:100670000090114801900020029002200390002079
:100680000490802005904000069080000790202074
:1006900008900002099000200A906946044800F082
:1006A000B3F801210248FFF7CDFF0BB000BD0000F9
:1006B000080002404C2401405201002001684FF61E
:1006C000FE72114001600021016041608160C160E3
:1006D0004B49884208D14A490839496841F00F011D
:1006E000474A083A51608AE045491431884208D1A6
:1006F00043490839496841F0F001414A083A5160DC
:100700007DE03F492831884208D13D490839496890
:1007100041F470613A4A083A516070E038493C311E
:10072000884208D136490839496841F47041344A51
:10073000083A516063E032495031884208D130496B
:100740000839496841F470212D4A083A516056E051
:100750002B496431884208D129490839496841F454
:100760007001274A083A516049E0254978318842AA
:1007700008D123490839496841F07061204A083A94
:1007800051603CE01F49884206D1011F096841F0D1
:100790000F01021F116032E01A491431884208D15A
:1007A0001849091F096841F0F001164A121F11602B
:1007B00025E014492831884208D11249091F0968E7
:1007C00041F470610F4A121F116018E00D493C316D
:1007D000884208D10B49091F096841F47041094A50
:1007E000121F11600BE007495031884207D10549BB
:1007F000091F096841F47021024A121F11607047F5
:10080000080002400804024010B50022026847F6C2
:10081000F0739A430C6A8B6823430C6923434C6939
:1008200023438C692343CC6923434C6A23438C6A5A
:1008300023431A430260CB6843600B6883604B68B4
:10084000C36010BD7047000010B50121042000F006
:1008500087FA0121102000F083FA0121082000F01E
:100860007FFA0121202000F07BFA0121084600F0E8
:1008700077FA0121014800F08FF810BD0002300026
:100880002DE9F04102460025002600200023002427
:10089000002791F803C00CF00F0591F803C00CF08D
:1008A000100CBCF1000F03D091F802C04CEA050512
:1008B00091F800C0BCF1000F31D0146800202BE08B
:1008C0004FF0010C0CFA00F3B1F800C00CEA03067B
:1008D0009E4220D183004FF00F0C0CFA03F7BC436B
:1008E00005FA03FC4CEA040491F803C0BCF1280F9C
:1008F00006D14FF0010C0CFA00FCC2F814C00AE05B
:1009000091F803C0BCF1480F05D14FF0010C0CFA6F
:1009100000FCC2F810C0401C0828D1D31460B1F804
:1009200000C0BCF1FF0F34DD546800202EE000F160
:10093000080C4FF0010808FA0CF3B1F800C00CEAFB
:1009400003069E4221D183004FF00F0C0CFA03F7EF
:10095000BC4305FA03FC4CEA040491F803C0BCF163
:10096000280F05D100F1080C08FA0CF8C2F8148021
:1009700091F803C0BCF1480F07D100F1080C4FF00B
:10098000010808FA0CF8C2F81080401C0828CED3E1
:100990005460BDE8F0810000F0B50A460023002451
:1009A0000021002500F00046B6F1004F02D11D4E97
:1009B000F16901E01B4E7168C0F3034583B200F496
:1009C0004016B6F5401F08D121F07061154E7668CB
:1009D00026F07066134F7E6012E000F48016B6F5C4
:1009E000801F06D1032606FA05F4A14341F0706189
:1009F00006E0460D360103FA06F6B14341F0706198
:100A000022B1460D360103FA06F6314300F00046E6
:100A1000B6F1004F02D1034EF16101E0014E716069
:100A2000F0BD0000000001400246002093680B402A
:100A30000BB1012000E00020704741617047016167
:100A40007047000001460148405C7047E401002007
:100A500000BFFEE770B506460024002500BF5DE03C
:100A6000324A02EBC5029188304A52F83500FFF74E
:100A7000DBFF20B9072D02DD0120A8400443002040
:100A8000FFF7E0FF012819D10020FFF7C9FD002082
:100A9000FFF7D2FD2648006818B9012024490860F4
:100AA0000CE023480068082803D100202049086092
:100AB00004E01F48006840001D4908600120FFF75E
:100AC000C1FF012818D1FFF7ABFD0120FFF7B4FDEE
:100AD0001748406818B91020154948600CE01448C0
:100AE0004068802803D100201149486004E0104884
:100AF000406840000E4948600D480068C0F1FF3072
:100B000004400B480068044309484068C0F1FF30C6
:100B10000440074840680443681CC5B2182D9FD3A1
:100B20003470200A7070200CB07070BD740000200A
:100B30003401002070B5054600242878697800EB60
:100B40000120A97800EB014600BF1BE00120A04076
:100B500030400121A140884209D10C4A02EBC40275
:100B600091880A4A52F83400FFF769FF08E0074A03
:100B700002EBC4029188054A52F83400FFF75DFF8A
:100B8000601CC4B20C2CE1D370BD00001400002026
:100B900038B5002400F03EF800BF13E01B4800EB1E
:100BA000C4008088ADF8000003208DF802004820C2
:100BB0008DF80300154951F834006946FFF760FECF
:100BC000601CC4B2182CE9D300241CE0104800EBD0
:100BD000C4008088ADF8000003208DF802001020CA
:100BE0008DF803000A4951F834006946FFF748FEC2
:100BF000074A02EBC4029188054A52F83400FFF715
:100C00001CFF601CC4B20C2CE0D338BD7400002063
:100C10001400002008B50020009001213D2000F0C4
:100C20009FF808BD00BFFEE7F0B502460B464AF24A
:100C300001064FF6FF7000210EE0575C784000245B
:100C400006E000F00105401005B17040671CFCB2E1
:100C5000082CF6DB4F1CF9B29942EEDBF0BD704771
:100C600070B5002100230F22C47804B3154C24680A
:100C700004F4E064C4F5E064210AC1F10403CA404D
:100C8000447804FA03F184781440214309010E4C9E
:100C90000678A155047804F01F050124AC400578BE
:100CA0006D11AD0005F1E025C5F8004109E00478BB
:100CB00004F01F050124AC40044D0678761145F878
:100CC000264070BD0CED00E000E400E080E100E0B3
:100CD00002490143024A1160704700000000FA0512
:100CE0000CED00E07047000001460020034A506808
:100CF00020F440400843506070470000001002405C
:100D000029B1064A52690243044B5A6104E0034A7E
:100D100052698243014B5A61704700000010024043
:100D200029B1064AD2690243044BDA6104E0034A5E
:100D3000D2698243014BDA61704700000010024023
:100D400029B1064A12690243044B1A6104E0034ABE
:100D500012698243014B1A61704700000010024083
:100D600029B1064A92690243044B9A6104E0034A9E
:100D700092698243014B9A61704700000010024063
:100D800029B1064AD2680243044BDA6004E0034A00
:100D9000D2688243014BDA607047000000100240C5
:100DA00030B500210022002400232D4D6D6805F090
:100DB0000C0121B1042905D0082923D105E0294DD2
:100DC000056022E0274D05601FE0254D6D6805F4A4
:100DD0007012234D6D6805F48034022505EB9242B4
:100DE0001CB9214D554305600BE01D4D6D6805F4A0
:100DF00000351DB11C4D5543056002E0194D5543AA
:100E0000056002E0174D056000BF00BF144D6D681E
:100E100005F0F0010909154D6B5C0568DD40456082
:100E20000F4D6D6805F4E061090A104D6B5C456873
:100E3000DD4085600A4D6D6805F46051C90A0B4DAF
:100E40006B5C4568DD40C560054D6D6805F440414B
:100E5000890B074D6B5CC568B5FBF3F5056130BDCB
:100E60000010024000127A0000093D003C01002001
:100E70004C01002070B50024002500BF69E014B1CA
:100E8000012C12D108E008214448FFF7CDFD08B934
:100E9000002500E0012508E080214048FFF7C4FD5F
:100EA00008B9002500E0012500BF00BF3C48005DF7
:100EB00005284BD2DFE800F003121E263B0065B97F
:100EC0003848007810B901203649087000213648AA
:100ED00020F8141001203249085537E0324830F824
:100EE00014003149091F21F8140015B102202C49C2
:100EF00008552BE003202A49085500212A48801D67
:100F0000015500BF35B900212748801D015501203A
:100F1000234908552448801D005D032806DD002173
:100F20002148801D015504201D4908550EE0002070
:100F30001C49087001211C48001D015501201A4957
:100F4000091F887300201649085500BF00BF601CA8
:100F5000C4B2022C93DB00241DE0134830F81400C7
:100F60004EF66021884207DA0F4830F81400401C22
:100F700081B20D4820F814100B48801D005DFA283E
:100F800007DA0948801D005D401CC1B20648801D7B
:100F90000155601CC4B2022CDFDB70BD00100140A3
:100FA0005701002056010020E0010020704710B5D5
:100FB00000F002F810BD00000CB500200190009078
:100FC0003348006840F480303149086000BF304841
:100FD000006800F4003000900198401C01900098D7
:100FE00018B90198B0F5A06FF1D12948006800F454
:100FF000003010B10120009001E000200090009826
:10100000012843D12348006840F0100021490860BE
:101010000846006820F0030008600846006840F0B9
:10102000020008601A48406819494860084640684C
:1010300048600846406840F4806048600846406860
:1010400020F47C1048600846406840F4E81048608E
:101050000846006840F08070086000BF0C480068D7
:1010600000F000700028F9D00948406820F0030023
:10107000074948600846406840F00200486000BFE9
:101080000348406800F00C000828F9D10CBD0000AE
:1010900000100240002002404A1C02807047704746
:1010A00010B51348006840F0010011490860084677
:1010B0004068104908400E494860084600680E49DB
:1010C00008400B4908600846006820F4802008604A
:1010D0000846406820F4FE0048604FF41F00886016
:1010E000FFF765FF4FF000600449086010BD000085
:1010F000001002400000FFF8FFFFF6FE08ED00E0E0
:1011000010B50121880700F049F940B1044800F00A
:1011100045FCFFF7AFFE0121880700F03CF810BD49
:10112000000000207FB505460C464FF4A060FFF795
:10113000CFFD01210846FFF7F3FD4FF0804000F09E
:1011400039F8ADF80850ADF804400020ADF80600BD
:10115000ADF80A0001A94FF0804000F039F90121F3
:10116000880700F018F801221146900700F027F9CF
:101170000121880700F012F81C208DF800000020E3
:101180008DF8010001208DF802008DF803006846FB
:10119000FFF766FD7FBDCA430282704721B1028816
:1011A00042F00102028004E002884FF6FE731A400A
:1011B0000280704710B504466848844208D1012176
:1011C000C014FFF7DDFD0021E014FFF7D9FDC4E0F6
:1011D000B4F1804F08D101210846FFF7B1FD00218D
:1011E0000120FFF7ADFDB8E05D48844208D1012140
:1011F0000220FFF7A5FD00210220FFF7A1FDACE0D2
:101200005848844208D101210420FFF799FD0021AC
:101210000420FFF795FDA0E05348844208D1012146
:101220000820FFF78DFD00210820FFF789FD94E0DD
:101230004E48844208D101211020FFF781FD002192
:101240001020FFF77DFD88E04948844208D1012144
:101250002020FFF775FD00212020FFF771FD7CE0C5
:101260004448844208D101214014FFF789FD002140
:101270006014FFF785FD70E03F48844209D10121E9
:10128000C804FFF77DFD00214FF40020FFF778FD33
:1012900063E03A48844209D101210805FFF770FD57
:1012A00000214FF48010FFF76BFD56E03448844274
:1012B00009D101214805FFF763FD00214FF400101B
:1012C000FFF75EFD49E02F48844208D1012140200C
:1012D000FFF736FD00214020FFF732FD3DE02A48B0
:1012E000844208D101218020FFF72AFD00218020BF
:1012F000FFF726FD31E02548844208D10121801501
:10130000FFF71EFD0021A015FFF71AFD25E020487C
:10131000844209D101210804FFF732FD00214FF476
:101320008030FFF72DFD18E01A48844209D10121D1
:101330004804FFF725FD00214FF40030FFF720FDA2
:101340000BE01548844208D101218804FFF718FDFD
:1013500000214FF48020FFF713FD10BD002C014049
:101360000004004000080040000C00400010004055
:101370000014004000340140004C01400050014086
:101380000054014000180040001C004000200040B4
:1013900000400140004401400048014030B5024691
:1013A000002000230024158A05EA0103958905EA37
:1013B000010413B10CB1012000E0002030BD1AB1CE
:1013C00083890B43838102E083898B438381704748
:1013D000002202881D4B98420ED01D4B98420BD024
:1013E000B0F1804F08D01B4B984205D01A4B984261
:1013F00002D01A4B984204D14FF68F731A404B8893
:101400001A43174B984207D0164B984204D04FF618
:10141000FF431A40CB881A4302808B8883850B8850
:1014200003850A4B98420BD0094B984208D00E4BCB
:10143000984205D00D4B984202D00D4B984201D1F5
:101440000B7A03860123838270470000002C014041
:10145000003401400004004000080040000C00403F
:1014600000100040001400400040014000440140D2
:101470000048014008B50020009040F22551224864
:1014800000F0FBF800283DD040F225511E4800F046
:101490007EF81E484088012804D100201C490870AD
:1014A0001C49087000201949488008460521C26877
:1014B0009047154800F09CF91749154A127888544E
:1014C00013480078401C1249087013480078AA2875
:1014D00004D0002008700F49087008BD0C4800783F
:1014E0000E280FDB002240F22551074800F0EFF8EC
:1014F0000120094981F87E0000200549087005494E
:101500000870EAE700BFE8E700380140000000206B
:1015100050010020510100205C01002070B50546FB
:101520000E464FF400611348FFF789FA002240F29B
:101530002551114800F0CBF800240CE0295D0E483D
:1015400000F05BF900BF40210B4800F089F800284B
:10155000F9D0601CC4B2B442F0DB012240F2255144
:10156000054800F0B4F84FF400610248FFF765FA4F
:1015700070BD0000000801400038014001F4007215
:10158000B2F5007F00D100BFCA430280704710B59A
:101590000022002340F66A14A14200D100BF0A12C3
:1015A00001249440A3B2DC43048010BD21B18289A0
:1015B00042F40052828104E082894DF6FF731A40A2
:1015C0008281704710B504462048844209D1012128
:1015D0008803FFF7D5FB00214FF48040FFF7D0FBD5
:1015E00032E01B48844209D101214804FFF7A8FBDF
:1015F00000214FF40030FFF7A3FB25E0154884429B
:1016000009D101218804FFF79BFB00214FF48020C2
:10161000FFF796FB18E01048844209D10121C80465
:10162000FFF78EFB00214FF40020FFF789FB0BE052
:101630000A48844208D101210805FFF781FB0021F7
:101640004FF48010FFF77CFB10BD00000038014014
:101650000044004000480040004C00400050004062
:1016600002460020B1F5007F00D100BF13880B4077
:101670000BB1012000E00020704770B50246002445
:1016800000230025002040F66A16B14200D100BFB9
:10169000C1F3421501F01F03012606FA03F3012DE1
:1016A00002D19689334006E0022D02D1168A3340DA
:1016B00001E0968A33400C12012606FA04F41688DB
:1016C000344013B10CB1012000E0002070BDF0B532
:1016D0000346002400260025002040F66A17B94280
:1016E00000D100BF1846C1F3421401F01F060127C4
:1016F00007FA06F5012C01D10C3004E0022C01D1CF
:10170000103000E014301AB107682F43076002E080
:101710000768AF430760F0BD2DE9F04786B0054686
:101720000E460024A24600BFA1460027B08900B1A2
:1017300000BF2F462C8A4CF6FF700440F08804430B
:101740002C82AC894EF6F3100440B08831890843EE
:10175000718908430443AC81AC8A4FF6FF400440D2
:10176000B0890443AC8201A8FFF71AFB1F488742E7
:1017700002D1DDF810A001E0DDF80CA0A88900F48A
:10178000004040B10AEBCA0000EB0A103168490082
:10179000B0FBF1F807E00AEBCA0000EB0A10316871
:1017A0008900B0FBF1F86420B8FBF0F004012009D7
:1017B000642101FB1089A88900F4004040B1322067
:1017C00000EBC900B0FBF1F000F00700044308E0B3
:1017D000322000EB09106421B0FBF1F000F00F00A3
:1017E00004432C8106B0BDE8F087000000380140BA
:1017F00001468888C0F308007047C1F30802828060
:10180000704700BFFEE7000010B586B004464FF4F5
:10181000A060FFF75DFA01218803FFF7A1FA01211B
:101820000420FFF79DFA2F48FFF7CCFE4FF400701D
:10183000ADF8140003208DF8160018208DF817005D
:1018400005A92948FFF71CF84FF48060ADF8140093
:1018500004208DF8170005A92348FFF711F84FF46D
:101860000060ADF8140003208DF8160010208DF8EC
:10187000170005A91C48FFF703F801940020ADF8F4
:101880000800ADF80A00ADF80C00ADF810000C200F
:10189000ADF80E0001A91348FFF73EFF20211148C3
:1018A000FFF76CFE012240F225510E48FFF70FFFB3
:1018B00025208DF8000000208DF801008DF8020031
:1018C00001208DF803006846FFF7CAF94FF4006164
:1018D0000548FFF7B2F801210248FFF767FE06B09E
:1018E00010BD000000380140000801400024FEF750
:1018F00063FEFFF74DF947214FF47A70FFF712FCB2
:10190000FEF732FE4FF4E130FFF77EFF41E0214861
:10191000C088012823D100201E49C880AA201E4962
:1019200081F83F0001F14000FFF794F81A48433076
:10193000FEF708FE0C2118483F30FFF775F9044602
:10194000154880F84B40210A80F84C100E213F309A
:10195000FFF7E4FD0F480F21C268001D90470E48B5
:1019600090F87E00012814D10C210B48FFF75CF998
:1019700004460948007B0849497B00EB0120A0424E
:1019800003D10548401CFFF7D5F80020024981F833
:101990007E00BCE7000000205C01002010B501467D
:1019A00008460823002200BF14E00488012C03DD50
:1019B0000488641E048009E00488012C06D10024F8
:1019C0000480801C01240470801C01E0001D00BF05
:1019D000141DA2B29A42E8DB10BD0000FC190008F9
:1019E000000000205C0100006C0100089C1A000847
:1019F0005C010020F4060000D0010008101A050068
:101A000000000A0001001906000899100008A90545
:101A10000008000801400118210852080852100867
:101A200052200852400852802811434108521008A1
:101A3000211952104811085202085204085208088D
:101A4000521008522008524008528038315821085C
:101A50005202085204085208085210085220085234
:101A600040082180520C80520C80520C78520C7825
:101A7000520C78520C78520C78520C78520C7852E6
:101A80000C78520C78910120050102030404B0087F
:0C1A9000060708090204061E0000000002
:0400000508000131BD
:00000001FF
